:020000040000FA
:100000000B0000EA050000EA070000EA040000EA2D
:10001000040000EA42000000220000EA8B0000EA2F
:10002000FEFFFFEAFEFFFFEAFEFFFFEAFEFFFFEA38
:10003000FEFFFFEA50009FE5DBF021E300D0A0E1E6
:10004000000040E2D7F021E300D0A0E1000040E250
:10005000D3F021E300D0A0E1100040E2D2F021E390
:1000600000D0A0E1010C40E2D1F021E300D0A0E1FA
:10007000010C40E21FF021E300D0A0E101AB4DE212
:100080002F0A00EB010000EBFEFFFFEA00008200F8
:100090000CD09FE5410C00FA00009FE510FF2FE116
:1000A000B01A000000FC81003F502DE90040A0E3A1
:1000B0000050A0E30105A0E34000D0E5800010E37C
:1000C0004400000AE4039FE50208D0E50F0000E2C7
:1000D000040050E32A00000A060000CA000050E3B2
:1000E0000900000A010050E32100000A020050E369
:1000F0003500001A200000EA060050E32700000A3D
:100100000C0050E33000001A280000EA0000A0E1D3
:100110009C039FE5020300EB90039FE50608D0E5F2
:10012000300050E30200001A84039FE5FC0200EB5C
:100130000E0000EA74039FE50608D0E5110050E3C5
:100140000300001AAA00A0E360139FE50008C1E5C0
:10015000060000EA54039FE50608D0E5220050E3BC
:100160000200001A4C039FE5170300EB0040A0E1DA
:10017000170000EA0000A0E1150000EA0000A0E17D
:10018000130000EA0000A0E128039FE50E0300EB46
:100190000040A0E10400A0E1440300EB0C0000EAF1
:1001A0000000A0E104039FE50558D0E5080000EA3F
:1001B0000000A0E1FC029FE5030300EB0040A0E18A
:1001C0000400A0E1390300EB010000EA0000A0E117
:1001D0000000A0E10000A0E10105A0E3400090E5DF
:1001E000020910E30000000A830C00FA0105A0E3F5
:1001F000400090E5010010E30600000A0A00A0E3B9
:10020000080E00FAB0029FE50600D0E5FF0080E38B
:10021000A4129FE50600C1E50105A0E3400090E5BA
:10022000020010E30700000A0100A0E38C129FE522
:100230000000C1E580029FE50604D0E5FF0080E3F1
:1002400074129FE50604C1E53F50BDE804F05EE28C
:100250000000A0E1FEFFFFEA0200A0E358129FE5C4
:100260000000C1E50000A0E3080081E550029FE521
:100270000C0081E50000C1E10200D0E5010080E34F
:100280000200C1E50400A0E30000C1E51EFF2FE16C
:100290000105A0E34800D0E5010080E30115A0E3DB
:1002A0004800C1E50105A0E34900D0E5800080E3F6
:1002B0004900C1E50105A0E34B00D0E5800080E3E3
:1002C0004B00C1E51EFF2FE110402DE90040A0E1E9
:1002D000000054E30000001A1080BDE80410A0E103
:1002E0001E0E8FE2F10F00FA0000A0E1F9FFFFEA15
:1002F000F0412DE918D04DE20040A0E10150A0E10D
:100300000260A0E10370A0E1500C00FA060050E387
:100310000200000AFC00A0E318D08DE2F081BDE8E5
:10032000B0019FE5B0119FE5000081E5AC019FE5BC
:1003300004008DE5860FA0E308008DE5FE0E80E247
:100340000C008DE51000A0E310008DE57B00A0E31C
:1003500014008DE504008DE21F0C00FA0730A0E1C7
:100360000620A0E10510A0E10400A0E1380C00FA8D
:100370000080A0E10800A0E1E6FFFFEAF8402DE9D7
:100380000070A0E10150A0E154619FE5040015E375
:100390001C00000A0010A0E30700A0E1570D00FABE
:1003A00000008DE54F0F8FE200109DE5BF0F00FAB2
:1003B00000409DE50D20A0E1001086E20700A0E1CD
:1003C000E60C00FA0C0000EA00408DE50D20A0E1EB
:1003D0000610A0E10700A0E14E0D00FA00009DE527
:1003E000004044E000009DE5006086E0000054E32A
:1003F0000000000A000000EA010000EA0000A0E19D
:10040000F0FFFFEA0000A0E1F880BDE870402DE9B0
:10041000FC0B00FA0060A0E1010016E30B00000AEB
:10042000D4009FE5301090E5D0008FE29F0F00FAD6
:10043000C4009FE5341090E5D4008FE29B0F00FAD2
:10044000B4009FE5381090E5D8008FE2970F00FACE
:10045000040016E30400000AEF0B00FA0040A0E1DC
:100460000410A0E1D0008FE2900F00FA100016E314
:100470000D00000A0040A0E3090000EA0400A0E12A
:10048000E90B00FA0050A0E1000055E30200000A69
:100490000510A0E10400A0E1B7FFFFEB010084E23A
:1004A000FF4000E2040054E3F3FFFFBA7080BDE8B0
:1004B00000D0400022008100028F810000804000B7
:1004C0001200810040420F004572726F723A20257F
:1004D0003032580A00000000E42455026400810014
:1004E000EC050000F4718100526563656976652052
:1004F0004C656E203D20253032780A0014A1810021
:10050000556E7265616368436F646520A3BA2564A4
:100510000A000000556E726561636850726F746FF7
:1005200020A3BA25640A0000556E726561636850A5
:100530006F727420A3BA25640A00000047494E5424
:100540005F535441545F5048595F4348414E4745BB
:1005500020253032780A000010402DE940D04DE2CD
:100560003C10A0E304008DE2E40A00FACC039FE50E
:10057000B010D0E1B013CDE1B200D0E1B203CDE1D3
:10058000BC039FE528008DE5FA0F80E22C008DE585
:100590000200A0E320008DE5A8039FE50C008DE597
:1005A000190DA0E310008DE504108DE298039FE57E
:1005B000010C00FA0040A0E10400A0E141FFFFEBC4
:1005C00040D08DE21080BDE8F0472DE90070A0E139
:1005D0000180A0E10290A0E10350A0E120609DE530
:1005E0000040A0E31D0000EA60039FE5840080E076
:1005F000B000D0E1000050E31700001A841184E03D
:10060000041281E048239FE5011382E03C239FE52B
:10061000842082E0B020D2E1020081E00620A0E147
:100620000510A0E1A80A00FA20039FE5840080E0FD
:10063000B000D0E1060080E010139FE5841081E057
:10064000B000C1E10C039FE50000D0E5010080E2AD
:1006500000139FE50000C1E5020000EA014084E2CA
:10066000030054E3DFFFFFBA0000A0E1F087BDE81C
:1006700010402DE940D04DE2B70F8FE2000090E529
:100680003C008DE53C10A0E30D00A0E19B0A00FAC0
:100690003C009DE52C008DE5A4029FE524008DE53E
:1006A000FA0F80E228008DE50200A0E31C008DE532
:1006B000F0004FE238008DE588029FE508008DE5E7
:1006C000190DA0E30C008DE50D10A0E178029FE567
:1006D000B90B00FA0040A0E10400A0E1F9FEFFEB35
:1006E00040D08DE21080BDE8FF5F2DE99B0F8FE2C7
:1006F000000090E50C008DE564029FE508008DE5A3
:1007000060929FE560B29FE548029FE50000D0E55A
:10071000000050E3D40000DA0040A0E3D00000EA7B
:1007200028029FE5840080E0B000D0E1000050E3A3
:10073000CA0000DAC10000EA10029FE5840080E0F0
:10074000B000D0E10B0050E3B50000BA840184E0B2
:10075000040280E0F8119FE50083D1E7840184E082
:10076000040280E0000381E00200D0E5841184E00F
:10077000041281E0D8219FE5011382E00110D1E548
:10078000015480E1840184E0040280E0001082E2F0
:10079000000381E00800D0E5841184E0041281E0C8
:1007A000011382E00710D1E5017480E1840184E047
:1007B000040280E0001082E2000381E00600D0E540
:1007C0000F00CDE50F00DDE5FF0050E30200001A49
:1007D0006C019FE508008DE5010000EA80019FE5BE
:1007E00008008DE584019FE50300D0E5070050E196
:1007F0001E00000AFF0C47E2FF0050E21B00000A47
:100800000060A0E30B0000EA840184E0040280E0C1
:100810003C119FE5000381E0051086E00100D0E770
:10082000841184E0041281E024219FE5011382E019
:100830000600C1E7016086E210019FE5840080E0C8
:10084000B000D0E1050040E0060050E1EDFFFFCA36
:10085000F8009FE5840080E0B000D0E1050040E0B2
:10086000E8109FE5841081E0B000C1E1730000EA68
:10087000D8009FE5840080E0B000D0E1050050E1A1
:100880005C0000BAAA0058E35A00001A840184E010
:10089000040280E0B8109FE50003D1E7C8109FE58F
:1008A0000000C1E5840184E0040280E0A0109FE51F
:1008B000000381E0011045E20100D0E7A8109FE5A8
:1008C0000C04C1E5022045E2840184E0040280E0DA
:1008D0007C309FE5000383E0011080E202008BE2A0
:1008E000F90900FA0060A0E30B0000EA840184E04B
:1008F000040280E058109FE5000381E0051086E0C7
:100900000100D0E7841184E0041281E040209FE5DB
:10091000011382E00600C1E7016086E22C009FE53A
:10092000840080E0B000D0E1050040E0060050E126
:10093000EDFFFFCA970200EB28909FE5230000EA35
:10094000C895000078690000B46B81003100810017
:100950000C0081003478810013008100FFFFFFFF4D
:10096000C0A80102606D000004958100F48A810036
:1009700006008100F4009FE5000090E504008DE58D
:1009800004009DE5000050E30000001A100000EA9A
:1009900008309DE500308DE50C308DE204208DE2BD
:1009A0000910A0E10000A0E3EA0B00FA00A0A0E11A
:1009B000B8009FE5000090E504109DE5010040E0CF
:1009C000A8109FE5000081E504009DE5009089E006
:1009D000E7FFFFEA0000A0E190001FE5840080E04F
:1009E000B000D0E1050040E0A0101FE5841081E0D8
:1009F000B000C1E10A0000EA841184E0041281E041
:100A0000B4201FE5010382E0191DA0E3BB0900FA31
:100A10000000A0E3CC101FE5841081E0B000C1E12C
:100A2000080000EADC001FE5840080E0B000D0E1AF
:100A30000B0050E3000000BA000000EA010000EAE9
:100A40000000A0E13BFFFFEA0000A0E1FC001FE581
:100A50000000D0E5010040E208111FE50000C1E5FB
:100A6000014084E2030054E32CFFFFBAFF9FBDE87E
:100A7000340081000105A0E3C300D0E58000C0E39D
:100A80000115A0E3C300C1E50105A0E3A000D0E586
:100A90007F00C0E3A000C1E50105A0E3A200D0E50E
:100AA0000F00C0E3A200C1E50105A0E3C100D0E54D
:100AB0000F00C0E3C100C1E50105A0E3C100D0E51E
:100AC000F00080E3C100C1E50105A0E3800090E5EE
:100AD000E0169FE5010080E10115A0E3800081E5BB
:100AE0000105A0E3D300D0E5800080E3D300C1E599
:100AF0000105A0E3B000D0E57F0080E3B000C1E5D0
:100B00000105A0E3B200D0E50F0080E3B200C1E52B
:100B10000105A0E3D100D0E50F0080E3D100C1E5DD
:100B20000105A0E3C900D0E5F00080E3C900C1E5FC
:100B30000105A0E3880090E578169FE5010080E1BB
:100B40000115A0E3880081E50105A0E3A100D0E53F
:100B5000F300C0E3A100C1E50105A0E3C000D0E5BA
:100B6000FF00C0E3C000C1E51EFF2FE170402DE98A
:100B700044469FE50A10A0E30400A0E13D0900FA05
:100B80000150A0E10A10A0E30400A0E1390900FA35
:100B90000040A0E1050055E30000003A014084E276
:100BA0008000A0E314169FE50308C1E50100A0E35F
:100BB0000708C1E50408A0E1200CA0E10108C1E597
:100BC0000048C1E50300A0E30308C1E5C700A0E3B6
:100BD0000208C1E54000A0E30108C1E50105A0E36A
:100BE000BC0090E5030B80E30115A0E3BC0081E5A8
:100BF0000105A0E3B40090E5010BC0E3B40081E57A
:100C00000105A0E3A00090E5020B80E3A00081E5D0
:100C10007080BDE8A4359FE50008C3E50000A0E1B1
:100C200098259FE50528D2E5200012E3FBFFFF0A87
:100C30001EFF2FE170402DE90050A0E10510A0E15A
:100C40007C059FE50B0900FA0040A0E10A10A0E333
:100C50000400A0E1070900FA0160A0E10A10A0E386
:100C60000400A0E1030900FA0040A0E1050056E3FA
:100C70000000003A014084E28000A0E33C159FE5BB
:100C80000308C1E50100A0E30708C1E50408A0E1ED
:100C9000200CA0E10108C1E50048C1E50300A0E384
:100CA0000308C1E5C700A0E30208C1E54700A0E3CF
:100CB0000108C1E50800A0E30408C1E50105A0E3BF
:100CC0004800D0E5800080E30115A0E34800C1E5BD
:100CD0000105A0E3BC0090E5030B80E3BC0081E5C7
:100CE0000105A0E3B40090E5010BC0E3B40081E589
:100CF0000105A0E3A00090E5020B80E3A00081E5E0
:100D00007080BDE8B4149FE50008C1E50000A0E1D3
:100D1000A8149FE50518D1E5400011E3FBFFFF0A89
:100D20001EFF2FE104E02DE50020A0E1050000EA10
:100D30000000D2E5000050E30000001A020000EAC3
:100D40000100D2E4EEFFFFEBF8FFFFEA0000A0E1B4
:100D500004F09DE40000A0E360149FE50518D1E5D0
:100D60001E0011E30700001A0000A0E14C149FE5EB
:100D70000518D1E5010011E3FBFFFF0A3C149FE5D4
:100D80000008D1E5010000EA30149FE50018D1E524
:100D90001EFF2FE10000A0E10000A0E11C249FE560
:100DA0000528D2E5200012E3FBFFFF0A0120D0E472
:100DB00008349FE50028C3E5012041E2FF2002E25C
:100DC0000210B0E1F3FFFF1A1EFF2FE10010A0E1B7
:100DD0000000A0E3E4239FE50528D2E51E0012E30E
:100DE0001000001A0000A0E1D0239FE50528D2E5FD
:100DF000010012E3FBFFFF0A0000A0E1BC239FE516
:100E00000028D2E50120C1E4012080E2FF0002E2D7
:100E1000A8239FE50528D2E5012002E2010052E364
:100E2000F5FFFF0A010000EA90239FE50028D2E5C4
:100E30001EFF2FE1190000EA0000A0E17C339FE5CE
:100E40000538D3E5400013E3FBFFFF0A200051E320
:100E5000080000CA0000A0E10130D0E45CC39FE5B7
:100E60000038CCE5013041E2FF3003E20310B0E18D
:100E7000F8FFFF1A0A0000EA0020A0E3030000EADE
:100E80000130D0E434C39FE50038CCE5012082E294
:100E9000200052E3F9FFFFBA203041E2FF1003E2E5
:100EA000E4FFFFEA0000A0E11EFF2FE11EFF2FE19B
:100EB000F0472DE945DE4DE20050A0E1017B8DE2D7
:100EC000187087E2FC029FE50300D0E54004A0E132
:100ED000F0129FE50310D1E5018480E108908DE2D6
:100EE000B90F8FE2000090E504008DE504A08DE2CB
:100EF0000C4085E2AA00A0E30800CDE54404A0E18F
:100F0000040480E10118C0E3BA10CDE10010A0E3B1
:100F1000BC10CDE1BE80CDE10010E0E3B011CDE129
:100F2000B11CA0E3B211CDE1BB00A0E31404CDE5F8
:100F30000800DDE51804CDE50A20A0E3021089E2EF
:100F4000010B8DE2190080E25F0800FA0520A0E1A4
:100F500078129FE5010B8DE2230080E25A0800FA27
:100F60001404DDE5011044E2012B8DE2182082E239
:100F70000100C2E74C448DE54C649DE5110000EA98
:100F80004C648DE548329FE500308DE50A30A0E1E4
:100F9000012B8DE24C2082E20710A0E134029FE594
:100FA0000000D0E56B0A00FA4C049DE5006046E0C5
:100FB0004C049DE5007087E0000056E30000000A45
:100FC000000000EA010000EA0000A0E1EBFFFFEAF8
:100FD0000000A0E145DE8DE2F087BDE810402DE97C
:100FE0000010A0E10120A0E10000A0E36E0000EAF3
:100FF0003230A0E1013003E2010053E33300001A74
:10100000000050E3090000BA030050E3070000CAE3
:101010000135A0E3C930D3E504C080E20140A0E37C
:10102000143C83E101C5A0E3C930CCE55D0000EAD2
:101030000B0050E3070000CA0135A0E38830D3E578
:1010400004C040E20140A0E3143C83E101C5A0E3F9
:101050008830CCE5530000EA0F0050E3070000CAD7
:101060000135A0E38930D3E508C040E20140A0E3A8
:10107000143C83E101C5A0E38930CCE5490000EAD6
:10108000130050E3070000CA0135A0E38930D3E51F
:1010900010C040E20140A0E3143C83E101C5A0E39D
:1010A0008930CCE53F0000EA150050E33D0000CA5E
:1010B0000135A0E38A30D3E514C040E20140A0E34B
:1010C000143C83E101C5A0E38A30CCE5350000EA99
:1010D0003230A0E1010013E33200001A000050E3B7
:1010E000090000BA030050E3070000CA0135A0E37D
:1010F000C930D3E504C080E20140A0E3143CC3E161
:1011000001C5A0E3C930CCE5260000EA0B0050E39E
:10111000070000CA0135A0E38830D3E504C040E2EF
:101120000140A0E3143CC3E101C5A0E38830CCE555
:101130001C0000EA0F0050E3070000CA0135A0E3DD
:101140008930D3E508C040E20140A0E3143CC3E18C
:1011500001C5A0E38930CCE5120000EA130050E39A
:10116000070000CA0135A0E38930D3E510C040E292
:101170000140A0E3143CC3E101C5A0E38930CCE504
:10118000080000EA150050E3060000CA0135A0E39C
:101190008A30D3E514C040E20140A0E3143CC3E12F
:1011A00001C5A0E38A30CCE5010080E2150050E3E0
:1011B0008EFFFFDA1080BDE8FFFF03003D04000052
:1011C00000D040004059730706008100C0A80164A8
:1011D000028F8100786900003100810030402DE9E4
:1011E0001CD04DE2EB2F8FE2070092E810308DE229
:1011F000070083E80C00A0E30C008DE510408DE2B1
:101200003C004FE2000090E508008DE508508DE2BB
:101210000000A0E31500CDE558001FE50300D0E570
:101220001600CDE558301FE500308DE50530A0E112
:101230000C208DE20410A0E168001FE50000D0E55D
:10124000C40900FA1CD08DE23080BDE870402DE961
:1012500018D04DE20040A0E1CE2F8FE2070092E8C7
:101260000C308DE2070083E80C00A0E308008DE558
:101270000C508DE2CA0F8FE2000090E504008DE56E
:1012800004608DE20740CDE518039FE50340C0E50B
:101290000000A0E31100CDE5D8001FE50300D0E574
:1012A0001200CDE50000A0E31300CDE51440CDE52C
:1012B000F4329FE500308DE50630A0E108208DE294
:1012C0000510A0E1F4001FE50000D0E5A10900FA37
:1012D00018D08DE27080BDE810402DE9CC029FE56A
:1012E0000204D0E50100C0E3C0129FE50204C1E59D
:1012F0000000A0E3B8129FE50000C1E50000E0E3B4
:1013000035FFFFEB011BA0E3A8029FE57B0700FA76
:10131000011BA0E3A0029FE5780700FA7F2FA0E35E
:1013200090129FE50000A0E3AC0500EB0040A0E3B5
:101330000D0000EA7C029FE5840080E0B000D0E16F
:101340000004A0E16C129FE5841081E0B010D1E1AF
:10135000410480E1FF08C0E358129FE5841081E05A
:10136000B000C1E1010084E2FF4000E2FE0054E36E
:10137000EFFFFFBA0100A0E334129FE50000C1E5D2
:1013800028029FE50204D0E5010080E31C129FE5DE
:101390000204C1E51080BDE8FE4F2DE91C029FE567
:1013A000B200D0E14004A0E110129FE5B210D1E1FB
:1013B000010480E1FF78C0E300029FE5BA00D0E1BC
:1013C0004004A0E1F4119FE5BA10D1E1010480E1ED
:1013D000FF48C0E30080A0E318021FE50300D0E54A
:1013E0004004A0E124121FE50310D1E5010480E1CF
:1013F00008008DE50000A0E304008DE50090A0E367
:10140000BCA19FE5AA00A0E300108AE20000C1E5AC
:101410000000A0E3B400C1E108009DE5B600C1E111
:101420000000E0E3B800C1E1BB00A0E30C04C1E5AB
:10143000A20054E33200001A70019FE50204D0E5D7
:101440000100C0E364119FE50204C1E50000A0E3D0
:101450005C119FE50000C1E50000E0E3DEFEFFEB6C
:10146000011BA0E34C019FE5240700FA011BA0E348
:1014700044019FE5210700FAB080A0E3011AA0E330
:101480000000A0E35D0500EB0C2047E234119FE56E
:101490000000A0E35E0500EB0C2047E214119FE57D
:1014A0000000A0E34D0500EB0050A0E30C0000EAB3
:1014B00000019FE5850080E0B000D0E10004A0E1DC
:1014C000F0109FE5851081E0B010D1E1410480E18A
:1014D000FF08C0E3DC109FE5851081E0B000C1E1AA
:1014E000015085E2A71F87E0C110A0E1061041E28C
:1014F000050051E1EDFFFFCA0100A0E3B0109FE538
:101500000000C1E5FF0054E33D00001AFF8CA0E39A
:101510000E0CA0E3A8109FE5B200C1E1000081E23B
:10152000BA80C0E10E00A0E39C109FE5000081E5B9
:101530000105A0E3C700D0E50110A0E3C00301E06E
:101540000115A0E3A410D1E5810080E10115A0E31D
:10155000A610D1E50F1001E20125A0E3C520D2E5D8
:10156000F030A0E3022203E0021081E1010480E1F7
:1015700004008DE548109FE504009DE5BC00C1E135
:10158000000081E20000D0E540109FE50000C1E5C9
:1015900034009FE50E0000EAAA000C0000FFFFFFE8
:1015A000FF00EDBBC0A8010250008100606D00008B
:1015B0000080400038008100EC988100EC9C8100A4
:1015C000F48A8100F6908100008B81003400810054
:1015D00004958100000090E5022040E202108AE2BA
:1015E000A4049FE5B80600FA2C001FE50C04D0E522
:1015F0002C101FE5001091E5011041E234201FE599
:101600000100C2E7FE0054E33600001AFE8CA0E39E
:10161000010AA0E358101FE5B200C1E1000081E219
:10162000BA80C0E11000A0E364101FE5000081E56E
:1016300088001FE50204D0E50100C0E394101FE517
:101640000204C1E50000A0E39C101FE50000C1E515
:10165000011BA0E3A4001FE5A80600FA011BA0E3FC
:10166000AC001FE5A50600FAB080A0E3B4001FE5BA
:10167000BC00D0E1BC101FE5BE10D1E1019880E1B3
:101680000900A0E154FEFFEBD0001FE5BC00D0E153
:10169000D4101FE5BC00C1E1E0001FE5BE00D0E1B1
:1016A000BE00C1E1000081E20000D0E5E4101FE5CA
:1016B0000000C1E5F0001FE5000090E5022040E2D7
:1016C00002108AE2C0039FE57F0600FA10011FE5C1
:1016D0000C04D0E510111FE5001091E5011041E266
:1016E00018211FE50100C2E7FD0054E32B00001A9A
:1016F000FD8CA0E3010AA0E33C111FE5B200C1E1AB
:10170000000081E2BA80C0E11000A0E348111FE5AB
:10171000000081E50090E0E30060A0E3070000EA3C
:101720006C011FE5860080E0B006D0E1010050E3C7
:101730000100001A0100A0E31096C9E1016086E2F1
:10174000150056E3F5FFFFDA8C111FE5BC90C1E1EF
:1017500038039FE5290800E0BE00C1E1000081E2F6
:101760000000D0E59C111FE50000C1E5A8011FE5C0
:10177000000090E5022040E202108AE208039FE5A3
:10178000510600FAC8011FE50C04D0E5C8111FE599
:10179000001091E5011041E2D0211FE50100C2E7F0
:1017A000A10054E31F00001AA18CA0E30E0CA0E3DB
:1017B000F4111FE5B200C1E1000081E2BA80C0E18E
:1017C0000E00A0E300121FE5000081E50C061FE5F6
:1017D0000300D0E5B4129FE5000401E020121FE5EC
:1017E000BC00C1E1000081E20000D0E524121FE549
:1017F0000000C1E530021FE5000090E5022040E254
:1018000002108AE280029FE52F0600FA50021FE5CF
:101810000C04D0E550121FE5001091E5011041E2E3
:1018200058221FE50100C2E7FC0054E31700001A2C
:1018300078021FE5BC00D0E14004A0E184121FE55E
:10184000BC10D1E1010480E1FFB8C0E394021FE5C0
:10185000BE00D0E14004A0E1A0121FE5BE10D1E11E
:10186000010480E1FF08C0E300008DE50B10A0E15A
:10187000870F8FE200209DE58C0A00FAC8121FE551
:1018800060208BE2821081E000009DE5B000C1E1A4
:10189000FB0054E30000001A8EFEFFEBFA0054E355
:1018A0001000001AFC021FE50204D0E50100C0E3AD
:1018B00008131FE50204C1E50000A0E310131FE5B3
:1018C0000000C1E50000E0E3C3FDFFEB011BA0E366
:1018D00020031FE5090600FA011BA0E328031FE50A
:1018E000060600FAB080A0E3EE0054E30300001AFD
:1018F00038131FE5BC10D1E14104A0E152FEFFEB1B
:10190000ED0054E30000001A33FEFFEBFE8FBDE84C
:1019100010402DE90030A0E10120A0E10000A0E38B
:10192000011042E2060000EA53C1A0E101C00CE24E
:10193000014042E2014044E01CC480E1FF000CE2AF
:10194000011041E2000051E3F6FFFFAA1080BDE85C
:101950000105A0E3A500D0E5000FA0E1200DA0E166
:101960000115A0E3A510D1E5301001E2010180E1ED
:101970000115A0E3A510D1E5C01001E2410380E10B
:101980000115A0E3C410D1E5031001E2010180E1DB
:10199000D0171FE50300C1E50105A0E3C400D0E5B1
:1019A000FC0000E24001A0E1F4109FE50000C1E569
:1019B000F0071FE50300D0E5E8109FE50500C1E54D
:1019C0001EFF2FE1E0009FE520141FE50C0481E5D8
:1019D0000200A0E30004C1E50400A0E30004C1E5A7
:1019E0000000A0E3080481E50000C1E10204D0E5A5
:1019F000010080E30204C1E51EFF2FE10105A0E321
:101A0000D00090E5010080E30115A0E3D00081E55E
:101A10000105A0E3C00090E50100C0E3C00081E53E
:101A20000105A0E3D00090E5020080E3D00081E54D
:101A30000105A0E3C00090E50200C0E3C00081E51D
:101A40000105A0E3740090E5010080E3740081E5E6
:101A50000105A0E3780090E5010080E3780081E5CE
:101A60000105A0E37C0090E5010080E37C0081E5B6
:101A70000000E0E3700081E50105A0E34900D0E546
:101A8000080080E34900C1E51EFF2FE105958100B4
:101A9000FFFF00005345545F4D58585820256420DF
:101AA00025640A000A0081000000810020A10700CF
:101AB0000040A0E3EEFBFFEB960DA0E35CFCFFEB28
:101AC000BFFFFFEBA1FFFFEB28301FE568209FE57C
:101AD00068109FE514091FE504FAFFEBFF4000E2E0
:101AE0000400A0E1F7F9FFEBDAF9FFEBE7F9FFEB10
:101AF000DEFAFFEB48008FE2EC0900FA0D0000EA85
:101B0000920600FA9C0600FA000050E30000000A6A
:101B10003DFAFFEB40009FE50000D0E5010050E3F7
:101B20000300001A0C0200EB0000A0E328109FE560
:101B30000000C1E5EBFAFFEBF0FFFFEAC4950000FF
:101B4000C0950000434835363349504C6962496EB0
:101B5000697420537563636573730A001200810012
:101B600070402DE918D04DE20040A0E32E2E8FE208
:101B7000070092E80C308DE2070083E80C00A0E338
:101B800008008DE50C508DE22D0E8FE2000090E5EF
:101B900004008DE504608DE20000A0E31100CDE5B6
:101BA000BC029FE50300D0E51200CDE50000A0E3F4
:101BB0001300CDE5AC029FE50300D0E51400CDE5B0
:101BC000A0029FE50300D0E50700CDE5A60F8FE258
:101BD000B60900FA9C329FE500308DE50630A0E1A1
:101BE00008208DE20510A0E18C029FE50000D0E501
:101BF000580700FA0040A0E10410A0E19F0F8FE217
:101C0000AA0900FA18D08DE27080BDE8F0412DE9F4
:101C10000020A0E10040A0E30130A0E1040051E376
:101C20000600001A64529FE5825085E0016043E29D
:101C3000866086E0865285E020C085E2040000EAE6
:101C400048529FE5825085E0016043E2866086E06D
:101C500086C285E0010051E31200001A0155A0E39D
:101C6000C750D5E50160A0E3C55306E00165A0E3D8
:101C7000A460D6E5865085E10165A0E3A660D6E5BF
:101C80000F6006E20175A0E3C570D7E5F080A0E320
:101C9000077208E0076086E1064485E10160A0E381
:101CA0005402C6E1000000EAB000DCE1F081BDE8CA
:101CB000F04F2DE924D04DE20040A0E10170A0E1F9
:101CC0000250A0E1020057E37A00001A000055E339
:101CD0003300001A000054E3090000BA030054E383
:101CE000070000CA0105A0E3C900D0E5041084E2A2
:101CF0000120A0E3120180E10115A0E3C900C1E5C4
:101D00006C0000EA0B0054E3070000CA0105A0E3E1
:101D10008800D0E5041044E20120A0E3120180E134
:101D20000115A0E38800C1E5620000EA0F0054E35A
:101D3000070000CA0105A0E38900D0E5081044E2CD
:101D40000120A0E3120180E10115A0E38900C1E5B3
:101D5000580000EA130054E3070000CA0105A0E39D
:101D60008900D0E5101044E20120A0E3120180E1D7
:101D70000115A0E38900C1E54E0000EA150054E317
:101D80004C0000CA0105A0E38A00D0E5141044E22B
:101D90000120A0E3120180E10115A0E38A00C1E562
:101DA000440000EA010055E34200001A000054E339
:101DB000090000BA030054E3070000CA0105A0E3CC
:101DC000C900D0E5041084E20120A0E31201C0E1C3
:101DD0000115A0E3C900C1E5360000EA0B0054E399
:101DE000070000CA0105A0E38800D0E5041044E222
:101DF0000120A0E31201C0E10115A0E38800C1E5C4
:101E00002C0000EA0F0054E3070000CA0105A0E31C
:101E10008900D0E5081044E20120A0E31201C0E1EE
:101E20000115A0E38900C1E5220000EA130054E394
:101E3000170000CA0105A0E38900D0E5101044E2B4
:101E40000120A0E31201C0E10115A0E38900C1E572
:101E5000180000EAAA00100000FFFFFFFF0000BB0F
:101E6000C0A80102060081005000810053656E6425
:101E70002044756D6D790A00606D000031008100AD
:101E80004572726F723A20253032580A0000000005
:101E9000EC9C8100150054E3060000CA0105A0E394
:101EA0008A00D0E5141044E20120A0E31201C0E151
:101EB0000115A0E38A00C1E5030057E35400001AAE
:101EC000000054E3520000BA0A0054E3500000AA94
:101ED0000000A0E320008DE51C008DE5B63F8FE2F9
:101EE0000F0093E80C608DE20F0086E81000A0E37D
:101EF00008008DE50CA08DE2A0004FE2000090E507
:101F000004008DE504B08DE2BC029FE5000090E581
:101F1000000050E32B0000BA0000A0E31100CDE563
:101F2000C4001FE50300D0E51200CDE50000A0E3EA
:101F30001300CDE5D4001FE50300D0E51400CDE586
:101F4000E0001FE50300D0E50700CDE50000A0E3B9
:101F50001700CDE574129FE56C229FE5002092E505
:101F6000020191E70A10A0E34D0400FA1800CDE544
:101F70000000A0E31900CDE550129FE548229FE53F
:101F8000002092E5020191E70A10A0E3440400FA60
:101F90001A10CDE524311FE500308DE50B30A0E1AE
:101FA00008208DE20A10A0E10000A0E3690600FA13
:101FB00020008DE510029FE5000090E5010040E261
:101FC00004129FE5000081E50310A0E30400A0E1F6
:101FD0000DFFFFEB0090A0E1090055E10B00000AA6
:101FE000DEFEFFEBE0019FE5000090E5010080E2EE
:101FF000D4119FE5000081E5040184E0800085E0C4
:10200000C8119FE5C0219FE5002092E5020181E70C
:102010000000A0E10F6007E2040056E30700001A89
:1020200098011FE5840080E0011046E2811081E004
:102030001020A0E3011282E0818080E0040000EA29
:10204000B8011FE5840080E0011046E2811081E0C4
:10205000818280E0B050C8E124D08DE2F08FBDE8ED
:10206000F0472DE90060A0E10170A0E10250A0E17D
:102070000380A0E158919FE5054189E0010058E304
:102080001200001A000094E50100C0E3011006E20E
:10209000010080E1000084E5000094E50200C0E357
:1020A000000084E5000094E5030000E20310E0E393
:1020B000051101E0010080E1000084E50020A0E3BB
:1020C0000410A0E30500A0E1F8FEFFEB440000EAE5
:1020D000010056E33F00001A000094E5000FA0E164
:1020E000A00FB0E11500001A000094E5030000E223
:1020F0000310E0E3071101E0010080E1000084E546
:10210000000094E5030000E20120A0E3001094E544
:10211000211162E00320E0E3011102E0010080E10F
:10212000000084E5000094E5010080E3000084E500
:10213000000094E5020080E3000084E5280000EA46
:10214000000094E5010010E31700001A000094E578
:102150002001A0E1000050E3080000DA000094E54F
:10216000030000E20120A0E3001094E5211162E0E9
:102170000320E0E3011102E0010080E1000084E5BA
:10218000000094E5010080E3000084E5000094E590
:102190002001B0E11200001A0120A0E30410A0E326
:1021A0000500A0E1C1FEFFEB0D0000EA000094E590
:1021B000010080E3000084E5090000EAAA001000A5
:1021C00000FFFFFFFF00FC00000000BB5C0081007F
:1021D000ECA08100EC9F8100000094E50100C0E3C9
:1021E000000084E5F087BDE8F0412DE90070A0E132
:1021F0000150A0E10260A0E134879FE5064188E03C
:10220000010057E32500001A000094E5010010E3E7
:102210000D00001A000094E5010080E3000084E551
:10222000000094E5010000E20110E0E3851001E008
:10223000010080E1000084E50020A0E30510A0E398
:102240000600A0E199FEFFEB410000EA000094E5E2
:10225000010000E20520A0E3001094E5A11062E077
:102260000120E0E3811002E0010080E1000084E54C
:102270000410A0E3000094E5A00051E1340000BA8E
:102280000120A0E30510A0E30600A0E187FEFFEB1C
:10229000000094E50100C0E3000084E52C0000EAA2
:1022A000000055E30A00001A000094E50100C0E3B5
:1022B000000084E5000094E5010000E2000084E5F0
:1022C0000020A0E30510A0E30600A0E177FEFFEBED
:1022D000F081BDE8000094E5010000E2010050E358
:1022E0001400001A000094E5010000E20520A0E3BC
:1022F000001094E5A11062E00120E0E3811002E00B
:10230000010080E1000084E50410A0E3000094E5F2
:10231000A00051E10E0000BA0120A0E30510A0E3E7
:102320000600A0E161FEFFEB000094E50100C0E3C0
:10233000000084E5060000EA000094E5010000E2E8
:10234000000084E50020A0E30510A0E30600A0E162
:1023500056FEFFEB0000A0E1DCFFFFEAF04F2DE9A5
:102360008CD04DE20040A0E30090A0E30150A0E338
:10237000C0859FE50100A0E310008DE5620100EA41
:102380000860A0E10860A0E1028088E2B000D8E126
:10239000FF0C00E204008DE5B000D8E1FF7000E220
:1023A000028088E290059FE5000058E10000001AD5
:1023B0005C0100EA04009DE5F70C50E3D800000A38
:1023C000140000CAF20C50E38E00000A080000CA94
:1023D000160050E3AC00000AEF0C50E32000000AA6
:1023E0000F0A50E32200000AF10C50E34501001AE5
:1023F000170000EAF30C50E33501000A3D0B50E3EF
:102400002901000AF50C50E31C01000AF60C50E308
:102410003C01001ACE0000EAFF0010E33901001A67
:102420004004A0E1F80040E2080050E300F18F30E2
:10243000340100EAFB0000EAE40000EA5D0000EA83
:102440004D0000EA380000EA280000EA170000EA20
:102450000B0000EA0000A0E10040A0E30090A0E330
:10246000280100EA0000A0E10040A0E30090A0E302
:10247000240100EA0000A0E10000A0E310008DE5C7
:10248000200100EA0000A0E1B000D6E10710A0E1C1
:10249000DDFDFFEB0050A0E150008DE2840080E004
:1024A000B050C0E1010084E20148C0E3150100EA38
:1024B0000000A0E1B000D6E10710A0E1D2FDFFEBE3
:1024C0000050A0E1010055E30100001A0050A0E314
:1024D000000000EA0150A0E350008DE2840080E09B
:1024E000B050C0E1010084E20148C0E3050100EA08
:1024F0000000A0E1B000D6E10710A0E1C2FDFFEBB3
:102500000050A0E1010044E250108DE2800081E023
:10251000B000D0E1050000E0011044E250208DE25F
:10252000811082E0B000C1E1F60000EA0000A0E105
:10253000B000D6E10710A0E1B3FDFFEB0050A0E131
:10254000010055E30100001A0050A0E3000000EA7A
:102550000150A0E3010044E250108DE2800081E0D0
:10256000B000D0E1050000E0011044E250208DE20F
:10257000811082E0B000C1E1E20000EA0000A0E1C9
:10258000B000D6E10710A0E19FFDFFEB0050A0E1F5
:10259000010044E250108DE2800081E0B000D0E103
:1025A000050080E1011044E250208DE2811082E0BC
:1025B000B000C1E1D30000EA0000A0E1B000D6E124
:1025C0000710A0E190FDFFEB0050A0E1010055E3F2
:1025D0000100001A0050A0E3000000EA0150A0E34F
:1025E000010044E250108DE2800081E0B000D0E1B3
:1025F000050080E1011044E250208DE2811082E06C
:10260000B000C1E1BF0000EA0000A0E1010044E227
:1026100050108DE2800081E0B050D0E1020057E31D
:102620000100000A030057E30400001AB000D6E1DD
:102630000520A0E10710A0E19CFDFFEB110000EADE
:10264000040057E30700001A08A0A0E1028088E216
:10265000B020D6E1B010DAE10030A0E30500A0E13F
:102660007EFEFFEB070000EA050057E30500001AB5
:1026700008B0A0E1028088E2B020D6E1B010DBE132
:102680000500A0E1D7FEFFEB9E0000EA0000A0E1FC
:10269000010044E250108DE2800081E0B050D0E1B2
:1026A000010055E30100001A0050A0E3000000EA19
:1026B0000150A0E3020057E30100000A030057E3C2
:1026C0000400001AB000D6E10520A0E10710A0E147
:1026D00076FDFFEB110000EA040057E30700001A43
:1026E00008A0A0E1028088E2B020D6E1B010DAE1D3
:1026F0000030A0E30500A0E158FEFFEB070000EA70
:10270000050057E30500001A08B0A0E1028088E246
:10271000B020D6E1B010DBE10500A0E1B1FEFFEB97
:10272000780000EA0000A0E1010044E250108DE2D0
:10273000800081E0B050D0E1010055E30300001AB1
:10274000B000D6E10120A0E30710A0E157FDFFEBA8
:102750006C0000EA0000A0E1010044E250108DE2AC
:10276000800081E0B050D0E1010055E31600001A6E
:10277000020057E30100000A030057E30400001AB7
:10278000B000D6E10020A0E30710A0E147FDFFEB79
:102790000D0000EA040057E30500001AB020D6E15E
:1027A000B010DAE10130A0E30500A0E12BFEFFEB61
:1027B000050000EA050057E30300001AB020D6E147
:1027C0000010A0E30100A0E186FEFFEB4D0000EA4F
:1027D0000000A0E1010044E250108DE2800081E0A1
:1027E000B000D0E10C008DE5020044E250108DE213
:1027F000800081E0B000D0E108008DE5010044E2F6
:102800000048A0E12448A0E10C009DE508109DE5EA
:10281000015000E0010044E250108DE2800081E0B0
:10282000B050C0E1370000EA0000A0E1010044E23E
:1028300050108DE2800081E0B000D0E10C008DE509
:10284000020044E250108DE2800081E0B000D0E14F
:1028500008008DE5010044E20048A0E12448A0E121
:102860000C009DE508109DE5015080E1010044E267
:1028700050108DE2800081E0B050C0E1210000EAFC
:102880000000A0E1010044E250108DE2800081E0F0
:10289000B050D0E114008DE2890080E0B050C0E17A
:1028A000010089E20198C0E3160000EA0000A0E1FF
:1028B000010049E214108DE2800081E0B050D0E1C7
:1028C000010044E250108DE2800081E0B050C0E190
:1028D0000C0000EA0000A0E1010049E214108DE2C2
:1028E000800081E0B050D0E1010044E250108DE260
:1028F000800081E0B050C0E1010049E20098A0E111
:102900002998A0E10000A0E10000A0E110009DE5F1
:10291000010050E30300001A20009FE50000D0E50D
:10292000010050E395FEFF0A0000A0E18CD08DE28B
:10293000F08FBDE8EC9E8100EC988100EA9C81005C
:10294000380081005700A0E30115A0E30000C1E5B5
:10295000A800A0E30000C1E51400A0E30B00C1E55E
:102960000200A0E30A00C1E5BC00A0E30900C1E544
:102970008000A0E30400C1E50000A0E30000C1E581
:102980001EFF2FE10010A0E1040000EA1800A0E300
:10299000000000EA010040E2000050E3FCFFFF1AE3
:1029A0000120B0E1011041E2F7FFFF1A1EFF2FE105
:1029B0000010A0E1040000EA1C009FE5000000EA0E
:1029C000010040E2000050E3FCFFFF1A0120B0E1EB
:1029D000011041E2F7FFFF1A1EFF2FE1465F0000E2
:1029E000023080E0070A53E310402DE9FA00A0838B
:1029F0001080BD88A90000EB0000A0E31080BDE8B6
:102A0000012080E0070A52E3BF00009AFA00A08389
:102A10001EFF2FE1023080E0070A53E3C200009A54
:102A2000FA00A0831EFF2FE10010A0E30125A0E320
:102A30001A10C2E50710A0E31A10C2E50115A0E3C1
:102A40001800C1E51EFF2FE10000A0E10105A0E391
:102A50001A00D0E5800010E3FBFFFF1A0000A0E39E
:102A60000115A0E31A00C1E51EFF2FE10000A0E15F
:102A70000115A0E31A10D1E5800011E3FBFFFF1A56
:102A80000115A0E31800C1E51EFF2FE10000A0E141
:102A90000105A0E31A00D0E5800010E3FBFFFF1A58
:102AA0000105A0E31800D0E51EFF2FE104E02DE5AD
:102AB0000020A0E10214A0E1210CA0E1EAFFFFEB5D
:102AC0000218A0E1210CA0E1E7FFFFEBFF0002E20A
:102AD000E5FFFFEB04F09DE404E02DE50030A0E10C
:102AE0000600A0E3CFFFFFEBD6FFFFEB0300A0E162
:102AF000CCFFFFEB04F09DE410402DE9D1FFFFEB8C
:102B00000040A0E30A0000EA0500A0E3C5FFFFEBD8
:102B1000DDFFFFEBDCFFFFEB0030A0E1C9FFFFEBC7
:102B2000010013E30100001A0000A0E31080BDE8DB
:102B3000014084E20A0754E3F2FFFF3AFF00A0E3FA
:102B4000F9FFFFEA30402DE90030A0E14B00A0E39F
:102B5000B4FFFFEB0000A0E3D3FFFFEBCAFFFFEBE6
:102B6000C9FFFFEB0340A0E10750A0E30000A0E194
:102B7000C5FFFFEB0500C4E70500B0E1015045E2E9
:102B8000FAFFFF1AAFFFFFEB3080BDE804E02DE550
:102B9000B900A0E3A3FFFFEBAAFFFFEB04F09DE465
:102BA00004E02DE5AB00A0E39EFFFFEB0030A0E3C7
:102BB000010000EAA3FFFFEB013083E2320053E3A0
:102BC000FBFFFFBA04F09DE4F0412DE90040A0E1D5
:102BD0000150A0E10270A0E18C849FE5080004E0B0
:102BE000005085E0085085E00850C5E10840C4E188
:102BF000070054E10100003AFE00A0E3F081BDE8C7
:102C0000050084E0070050E10100009AFA00A0E30B
:102C1000F9FFFFEA8408A0E1A008B0E10E00001A65
:102C20000B0000EA5200A0E3AAFFFFEB0400A0E1C2
:102C30009DFFFFEBAFFFFFEB0060A0E1000056E35C
:102C40000100000A0600A0E1EBFFFFEA024984E26E
:102C5000025945E2020955E3F1FFFF2A0B0000EAA1
:102C60002000A0E39BFFFFEB0400A0E18EFFFFEB41
:102C7000A0FFFFEB0060A0E1000056E30100000AA6
:102C80000600A0E1DCFFFFEA014A84E2015A45E2C6
:102C9000010A55E3F1FFFF2A0000A0E3D6FFFFEA97
:102CA000F0402DE90030A0E10140A0E10250A0E198
:102CB0000470A0E11E3983E2020753E30000003AEA
:102CC000F080BDE8026763E2060055E10000009A6B
:102CD0000650A0E10B00A0E352FFFFEB0300A0E1D0
:102CE00071FFFFEB68FFFFEB67FFFFEB010000EAFE
:102CF00065FFFFEB0100C7E40500B0E1015045E2CC
:102D0000FAFFFF1A4FFFFFEBECFFFFEA30402DE91F
:102D10000040A0E10150A0E10227A0E30510A0E1DE
:102D20001E0984E2A7FFFFEB3080BDE8F0412DE9EA
:102D30000040A0E10160A0E10270A0E11E4984E230
:102D4000020754E30100003AFE00A0E3F081BDE871
:102D5000070084E0020750E30100009AFA00A0E3B4
:102D6000F9FFFFEA0680A0E1140000EA0200A0E3F8
:102D700058FFFFEB0400A0E14BFFFFEB0000A0E1D8
:102D80000100D8E438FFFFEB014084E2010047E294
:102D90000070B0E10000001A010000EAFF0014E337
:102DA000F6FFFF1A0000A0E152FFFFEB0050A0E188
:102DB000000055E30100000A0500A0E1E2FFFFEA80
:102DC000000057E3E8FFFF1A0000A0E3DEFFFFEA80
:102DD00030402DE90040A0E10150A0E11E29A0E310
:102DE0000510A0E1010784E276FFFFEB3080BDE82B
:102DF000F74F2DE90040A0E10250A0E104609DE5FD
:102E00003F42C4E3014784E21E0954E30100003A53
:102E1000FE00A0E3FE8FBDE8050084E01E0950E33C
:102E20000100009AFA00A0E3F9FFFFEA2551A0E1B2
:102E300038A29FE538B29FE5300000EA0200A0E327
:102E400024FFFFEB0400A0E117FFFFEB0000A0E16F
:102E5000049096E40980A0E10890A0E10A8028E0AF
:102E6000080019E30000000A028228E20B8008E053
:102E7000010919E30000000A018788E3010719E34B
:102E80000000000A018988E3020419E30000000A37
:102E9000028388E3020319E30000000A028488E346
:102EA000FF0008E2F0FEFFEB0818A0E1210CA0E112
:102EB000EDFEFFEB0814A0E1210CA0E1EAFEFFEB20
:102EC000280CA0E1E8FEFFEB044084E2010045E2AB
:102ED0000050B0E10000001A010000EAFF0014E316
:102EE000DAFFFF1A0000A0E102FFFFEB0070A0E193
:102EF000000057E30100000A0700A0E1C4FFFFEA59
:102F0000000055E3CCFFFF1A0000A0E3C0FFFFEA7A
:102F1000F0472DE90030A0E10140A0E10250A0E11E
:102F20000460A0E1013783E21E0953E30100003A87
:102F3000FE00A0E3F087BDE82551A0E12C919FE5BC
:102F40002CA19FE50B00A0E3B6FEFFEB0300A0E180
:102F5000D5FEFFEBCCFEFFEBCBFEFFEB1E0000EA45
:102F6000C9FEFFEB0010A0E1C7FEFFEB001481E1FA
:102F7000C5FEFFEB001881E1C3FEFFEB007C81E1A1
:102F80000780A0E10870A0E1098028E0080017E3AD
:102F90000000000A028228E20A8008E0010917E323
:102FA0000000000A018788E3010717E30000000A18
:102FB000018988E3020417E30000000A028388E322
:102FC000020317E30000000A028488E3040096E489
:102FD000080050E10000000A020000EA0500B0E12C
:102FE000015045E2DDFFFF1A0000A0E195FEFFEB76
:102FF000010085E2CEFFFFEA04E02DE53500A0E305
:1030000088FEFFEBA0FEFFEB9FFEFFEBC031A0E1CF
:103010000000A0E30115A0E31A00C1E5070023E2C8
:10302000070000E204F09DE410402DE90040A0E11B
:103030000100A0E3A7FEFFEB7C0004E28AFEFFEBA9
:10304000000054E30300000A200014E30100001A0A
:103050004210A0E3000000EA0210A0E3FF0001E23A
:1030600081FEFFEBA3FEFFEB1080BDE8FF0F000029
:1030700080800001FFBFFBF50B0001000020202233
:1030800030B5012409E00D00D5409D4205D31D0057
:103090009540491B2500954040191500521E002DF2
:1030A000F1DC30BD70B500242500002801DA0124D0
:1030B0004042002901DA01254942FFF7DDFFAC4219
:1030C00000D04042002C00D0494270BD03000B43A9
:1030D0009B0703D009E008C9121F08C0042AFAD2CE
:1030E00003E00B78491C0370401C521EF9D2704754
:1030F0001206120E01E00270401C491EFBD27047FE
:103100000022F5E710B504000800110002002000BD
:10311000FFF7EEFF200010BD001D0321401E0378C5
:1031200012021A43491EF9D510007047030003220A
:103130000870491C000A521EFAD518007047F0B5F5
:1031400006001FB4002082B00500402401910090C9
:103150001BE0019922000F00300000F041F8049AB2
:10316000059B801A994110D310001900220000F02D
:1031700027F8361A8F410197009F22000120002175
:1031800000F01EF838184D4100902000641E002801
:10319000DFDC019B00982900320007B0F0BD000081
:1031A000054C064D03E020000FC898471034AC4290
:1031B000F9D3FCF772EF00007096000090960000C3
:1031C000202A10B504DB0100203A9140002010BDF8
:1031D000914020239C1A0300E3401943904010BD06
:1031E000202A10B504DB0800203AD040002110BD91
:1031F0000B00D340D0402024A21A9140084319006C
:1032000010BD000002C081E010402DE90120D0E493
:103210000F3012E20130D0042222B0E10120D004AC
:10322000010000EA0140D0E40140C1E4013053E272
:10323000FBFFFF1A012052E20130C114FCFFFF1A0C
:103240000C0051E10000A023EFFFFF3A1080BDE821
:1032500010B5064CA06840084000A06001F0E2FAFA
:10326000A06801210843A06010BD000080604000FC
:10327000034904220862C86A1043C862704700000C
:1032800014A1810030B5184B164CDB7800220EE0FB
:103290003C2555432D192D6B854205D1002803D0BF
:1032A000002915D00A7013E0521C1206120E9A4221
:1032B000EED3002211E03C2555432D196D6B85425C
:1032C00008D1002806D0002902D080200243E9E777
:1032D000012030BD521C1206120E9A42EBD3002080
:1032E00030BD0000642B81006000810070B50B4D83
:1032F0000B4E00240EE03C2060434019016A052972
:1033000005D18169002902D0042100F095FB641CDD
:103310002406240EF0788442EDD370BD642B810026
:1033200060008100F0B52748816B826B022192001A
:103330000400803CA150244909680969826B92000D
:103340001219D163816B214A12685143204A8918AE
:10335000826B920012199167816B491C8163826BA9
:103360001C490B789A4201D300218163816B89004B
:103370006758194D134A2968876B01264032BF00F0
:10338000E6514C69E4684C614F690024BC604969AE
:10339000846B0E4F3F687C430D4FBF1EE4198F684E
:1033A0003C438C602C68F107646921601660C16B36
:1033B000491CC163C16B5A009A18914200D9C3637A
:1033C000F0BD00005CA881001C01810058A18100B3
:1033D000F20181006000810020018100064902683D
:1033E0000A6042684A6082688A60C268CA6000698E
:1033F000086100207047000058A1810010B500202E
:1034000001F09AFD10BD000000B500F0B7F8024AC7
:103410000021D16200BD000014A181000248008C8F
:103420000006000E7047000014A181000649C9780B
:10343000884201D3002070473C214143034A0023C6
:10344000505C53507047000060008100642B810085
:1034500006207047F8B50400142000781E001500FF
:103460000F00422803D0552801D0F920F8BD334879
:103470004421FFF745FE32481821FFF741FE2F484F
:1034800004222100FFF722FE2C4C04223900201DCB
:10349000FFF71CFE2000062231000C30FFF716FE5D
:1034A000002D2CD02000042229000830FFF70EFE4A
:1034B000244D322268680126C106C90EE970C10593
:1034C000090F2970C104090F69708104C90FA9701F
:1034D0004103C90EA1610102C90E5143E161C1015D
:1034E000C90F002902D0216C314321648001C00F33
:1034F00003D0206C02210843206400270CE0FF2049
:103500006072A07200202072D2E73900002000F023
:10351000B7FA7F1C3F063F0EE8788742F5D300F0EC
:103520000BFB00F077FC05480749583066620160E4
:1035300006494160092181600020F8BD14A1810085
:1035400080A1810060008100204E0000983A0000B8
:10355000084810B5808CC0070AD000F03FFC00F08E
:1035600001FC054801F0F8FB00F03EFBFFF7BEFE52
:1035700010BD000014A1810098A1810010B50E4A71
:103580000B4C0C49D37800200CE03C2242438A5873
:10359000002A04D0E06A10210843E06204E0401CE5
:1035A0000006000E9842F0D3A08D0006000E10BD5C
:1035B00014A18100642B810060008100FEB50C0025
:1035C00001000020050008705E485D4FC07808E0EB
:1035D0003C226A43D219126A002A04D06D1C2D06BF
:1035E0002D0E8542F4D3854201D32020FEBD0D70FF
:1035F000E069002805D0022820D003286ED02120C1
:10360000FEBD208D0006000E03F006FA06007BD0FA
:103610004D48694600680090300003F0ADF9E06A5B
:1036200069460090300003F0B3F93C2068434749F5
:10363000C219300003F006FA266344E005F0CCFE20
:103640000028019079D0E06A00900F20000702F076
:10365000BAFF0600009907200E40400702F0B3FFB2
:10366000864205D03A49684601F000FF002807D09D
:10367000208D384902040198120C05F00DFD14E06C
:103680003148694600680090208D02040198120CB0
:1036900005F002FD00280AD1E06A69460090A08C7E
:1036A00002040198120C05F047FD002802D000F03A
:1036B00007FAFEBD3C2068432749C219019805F06E
:1036C00098FE01982063052020622148694601F098
:1036D000ADFA2900200000F0D3F92CE004F0E8F85E
:1036E00006002AD01848694600680090208D020420
:1036F000120C300003F020FB0028019005D03000B0
:1037000003F0A2FB0198D2E717E03C206843C119FF
:10371000300003F00FFB1149300003F0F3FD266386
:103720000520666320622900200000F0A9F90848FE
:10373000694601F07BFA0020FEBD1120FEBD0000AD
:10374000642B81006000810014A18100A93E00006B
:1037500098A18100F79500002D410000B13A0000CA
:10376000F7B582B0049900220D680A603C214843F5
:1037700061494718386A052802D0172005B0F0BD06
:10378000002D18D0BE68F968701E0818B9697C69E8
:10379000A94200D20D00039900297DD06119814210
:1037A00000910AD2042D08D903982A002100FFF7BE
:1037B0008DFC009C85E01A20E0E75049097C8907D0
:1037C00029D5001B401CA842009000D3009500980A
:1037D000042805D9020003982100FFF777FC05E0D3
:1037E00002040398120C210000F0B0FA009903982B
:1037F000340040188D4264D96E1A042E04D9320068
:103800002100FFF763FC04E03204120C210000F0F9
:103810009DFAA41955E0002140E02378039A641C26
:103820001370039A521C844200D93400491CA942E7
:1038300047D22378641C1370521C844200D9340090
:10384000491CA9423DD22378641C1370521C844247
:1038500000D93400491CA94233D22378641C137068
:10386000521C844200D93400491CA94229D2237831
:10387000641C1370521C844200D93400491CA942B4
:103880001FD22378641C1370521C8442039200D907
:103890003400491CA94200E003E012D2A942BCD383
:1038A0000FE06119814203D2042D01D90C0008E018
:1038B000002104E0641C844200D93400491CA94260
:1038C000F8D3049805607C61B869411BB96102D1E5
:1038D000B86878613861F86903280AD1BA89386B09
:1038E000511A0904090C4185FA688A4201D105F090
:1038F00055F8002042E70000642B810058A18100A8
:103900003C225043034A8018002901D042690A60D2
:1039100080697047642B81003C2310B543430D4CF4
:103920001B191C6A052C03D000201060172010BD45
:10393000DB69002B05D0022B06D0032B07D0FA2021
:1039400010BD00F00BFB10BD00F050FC10BD00F0EE
:103950006DFB10BD642B8100FFB583B00599059AFE
:103960000D680026002D166037D00499002934D048
:103970003C2148432A4940180190006B0290294895
:10398000006C800700D4C726761C3604360CC82E7F
:1039900042D81724A401A54200D22C002104002201
:1039A000090C100002F018FE070037D0786804995F
:1039B0002200FFF78BFB1B490020C8630C9B069A73
:1039C0000298390005F01EFD0090380002F004FF57
:1039D0001448C06B002806D102E01A2007B0F0BDE1
:1039E000009800280EDA059900200860019840210F
:1039F00000F022F80098002802DA00F061F8EDE704
:103A0000FA20EBE705980068011905980160049811
:103A100000192D1B0490B7D10020DFE71120DDE74E
:103A2000642B810014A1810002490A681018086003
:103A300070470000CC00810070B5047805000829AB
:103A400013D007DC01290BD002290BD0042916D191
:103A5000042008E010290AD0402910D1402002E0BB
:103A6000012000E00220044308E00820FBE71020CA
:103A70000443686B002801D003F0E6F92C6070BDA8
:103A800070B505003C20414308480C183C2120003B
:103A9000FFF736FB002D04D020003C222900FFF761
:103AA00015FBA0682061606170BD0000642B81007F
:103AB0007047000001488068006A70471801810063
:103AC000002806D0FF210131081A02490006000E25
:103AD000085C7047CC95000070B5012002F006FF2D
:103AE000400701D4012070BD104DA868006A8830DD
:103AF0000468002002F0FAFE0D4A0E49C30508D5FD
:103B00001443800402D50C4308200AE08C430220B1
:103B100007E09443800402D50C43102001E08C435D
:103B20000420A968096A88310C6070BD1801810001
:103B30000080000000000400F8B5274901220A6255
:103B4000086CC307254804D0C37B5B065B0EC373B8
:103B500003E0C37A5B065B0EC372FFF7ABFF572629
:103B60000124A4052670A8272770607B4006400E1C
:103B7000607300252570194840300168C202114366
:103B80000160207F84210843207726702770A07B66
:103B90004006400EA07325703220FEF70AEF207F0A
:103BA0004006400E2077C820FEF702EF26702770EF
:103BB000607B4006400E6073257009480560094827
:103BC000816804221143816081684907FCD402495D
:103BD00001200862F8BD000014A1810040004000EF
:103BE0001801810080604000F8B52C4C606800909E
:103BF0002B48016A012950D00099A268C069891A2E
:103C00004008814203D30098A06005F09FF9009816
:103C100021697D25401AED00A84203D302F0C0F8C7
:103C2000009820610098E168401A1E49884203D339
:103C30000098E06001F028F81B48C168002908D00E
:103C40000099226A891AA94203D300992162406827
:103C50008047164EFF253068F535002816D00098AD
:103C60006169401AA84205D3009860613069002854
:103C700000D080470098A169401A0D49884205D3B9
:103C80000098A0617069002800D080470098E16921
:103C9000401AA84201D90098E061F8BDC80081002F
:103CA00014A18100881300002CA9810080A181004B
:103CB00060EA000001490120C863704714A1810037
:103CC000F8B5050000266846067028006946FFF72B
:103CD000D9FA00280BD0684600781349020607D5A8
:103CE0004006400E3C225043401846630662F8BD31
:103CF0003C22424354180D49C9788842F7D2E06902
:103D00000328F4D12D7C20003C21FFF7F9F9092D7F
:103D100008D00A2D06D040212000FFF78DFE266333
:103D20002662F8BD1021F7E7642B81006000810056
:103D300010B5054C23636263A1636061E06A0121F1
:103D40000843E06210BD000014A1810003E00B787D
:103D5000491C0370401C1300521E1204120C002B4D
:103D6000F5D17047154810B50168002921D101002F
:103D700040398A6B93000200C03AD358002B01D01F
:103D8000002010BD8C6B0123A4001351896B0C4AD9
:103D9000126851430B4A8A180B4909684C69A260A2
:103DA0004969DA070A6009498A68022422438A605D
:103DB000036000680006000E10BD00009CA8810092
:103DC00058A18100F0018100200181008060400045
:103DD000014880787047000060008100F8B50C4F02
:103DE0000025BC6911E02000FFF76AFF200004F005
:103DF00009F8E068002D01D0E86000E0B861E668ED
:103E00002100022002F002FB3400002CEBD1F8BDAF
:103E10007800810030B5002587B01C481C4C039504
:103E20000495059560620C38A062001DE062001DDB
:103E3000206302F085F9A16A042203A8FFF746F97E
:103E4000216B042204A8FFF741F9E16A042205A8C6
:103E5000FFF73CF90F48616A0622FFF737F90E4871
:103E600005600E4805600B48273802F04BFB0C48F4
:103E70000C49029007480191273805AB04AA03A911
:103E8000009502F007FB07B030BD000020A18100C3
:103E9000C8008100BFA18100700081007400810012
:103EA000D54C0000314D0000FFB50469C168050024
:103EB000601E0F1881B00398002640684178027890
:103EC0000802104302F083FB0005000F800041420E
:103ED000039802F0A4FC002802D0002005B0F0BD39
:103EE0000398002837D0002C0DD0E86800280AD0AD
:103EF00003994A89486893191E04360C1219BA426C
:103F000013D900220DE0039802F066FC23E0037849
:103F1000401C2370641CBC4200D9AC68521C1204C3
:103F2000120C4B899342F2D80BE0002206E0037892
:103F3000401C2370641C521C1204120C4B899342C7
:103F4000F5D809680029D4D1039802F045FCA86986
:103F50002C618019A8610120C0E70000F7B584B08A
:103F60000699069A0D683C2148432E4900264018C0
:103F70001660002D019031D0059800282ED00198B0
:103F8000006B02902848006C800700D4C726761C7E
:103F90003604360CC82E40D8B924E400A54200D817
:103FA0002C0021040022090C100002F015FB070070
:103FB00035D0786805992200FFF788F81A49002063
:103FC000C8630298390002F040FD0090380002F00A
:103FD00003FC1548C06B002806D102E01A2007B088
:103FE000F0BD009800280EDA0699002008600198BC
:103FF0004021FFF721FD0098002802DAFFF760FD5D
:10400000EDE7FA20EBE706980068011906980160D1
:10401000059800192D1B0590B9D10020DFE711206C
:10402000DDE70000642B810014A18100F7B582B0A8
:10403000049900260D683700002D0E6017D00399F3
:10404000002914D03C21484336494018006B0090A9
:104050003548006C800700D4C7277F1C3F043F0C05
:10406000C82F07D90498006800284DD153E01A20C2
:1040700005B0F0BD0098007C042801D01720F7E7B8
:104080002948006C800701D5FFF762FA009860307C
:10409000C489002C06D0244E4436307CC00703D19E
:1040A000A54201D91120E3E7A54200D82C00706891
:1040B000A04200D20400009803F092FC1A48443059
:1040C000007CC00703D02204120C012302E022046A
:1040D000120C00230399009804F064FF060005D039
:1040E000701C00981BD003F07BFC14E0009803F0D8
:1040F00077FC060004980068011904980160039891
:1041000000192D1B039001D10020B1E7064844306F
:10411000007CC007A1D13000FFF7D2FCA8E703F074
:104120005FFCF3E7642B810014A18100FFB50469F3
:104130000500C068611E4718A96B0026002981B0E0
:10414000944602D0AC68611E4718110006D0002CBE
:1041500001D0002804D1080002F03EFB05B0F0BDFC
:104160004B8948689A191604360C1A19BA420FD9A5
:10417000002309E00278401C2270641CBC4200D974
:10418000AC685B1C1B041B0C4A899A42F2D80BE0FA
:10419000002306E00278401C2270641C5B1C1B0498
:1041A0001B0C4A899A42F5D809680029D8D1012008
:1041B0000003864200D90600604602F00DFBAF6B9B
:1041C000002F0DD00498FEF7A7FF00960100AB6802
:1041D0000A9A2800B8470020A861A8682861BDE7AE
:1041E000A8692C618019A861B8E70000F7B582B012
:1041F0000499049A0D680026002D166034D00399A6
:10420000002931D03C21484327494018006B0190D8
:104210002648006C800700D4C726761C3604360C6E
:10422000C82E3CD81724A401A54200D22C0021049A
:104230000022090C100002F0CFF9070031D0786895
:1042400003992200FEF742FF18490020C863019835
:10425000390005F0D1F80090380002F0BDFA13489B
:10426000C06B002806D102E01A2005B0F0BD00980E
:1042700000280ADA0499002008600098002802DA71
:10428000FFF71EFCF1E7FA20EFE704980068011938
:1042900004980160039800192D1B0390BDD10020E4
:1042A000E3E71120E1E70000642B810014A1810005
:1042B0000FB410B5044B054A029803A900F030F87A
:1042C00010BC08BC04B01847140C00007401810035
:1042D00001C05EE50C0053E10C30DE270330DE3711
:1042E00083C08EE01CFF2FE1020000EA043090E45E
:1042F000042042E2043081E4000052E3FAFFFF1A96
:104300001EFF2FE11EFF2FE10000A0E3000052E39B
:104310000420421204008114FBFFFF1A1EFF2FE14C
:10432000FFB591B005000F000026F2E0252876D1F8
:104330000024FD496D1C0123009402942A78180082
:10434000203A904002000A4202D004436D1CF5E777
:1043500028782A280ED0022228780100303909292D
:1043600015D800990A2359431443303940186D1C5D
:104370000090F1E701CF0090002805DA012040030A
:104380000443009840420090022004436D1C2878AA
:104390002E2815D1042004436D1C28782A280AD120
:1043A00001CF6D1C02900BE002990A225143303973
:1043B00040186D1C02902878010030390929F3D982
:1043C00028786C2810D006DC4C281AD068280ED02B
:1043D0006A2817D104E0742813D07A2812D110E08B
:1043E0000120400504430CE00121090501E00321FF
:1043F00009050C436978814203D101206D1C000539
:1044000024186D1C28786E2886461FD00DDC632882
:1044100033D005DC00287ED0582812D1BCE010E053
:10442000642801D069280CD17FE073282ED004DCE9
:104430006F2871D0702804D1B0E075286DD078282D
:104440006CD0149A13999047761C61E06002400F7B
:10445000022807D003280AD0042838680AD03F1D54
:10446000066055E001CFF1170660416050E001CFD2
:1044700006804DE03F1D06704AE001CF6946087492
:104480000020487404A80390012003E001CF0390AA
:104490000020C04361070FD5002101E00199491CAC
:1044A000029A0191914213DA8142F7DB019A039952
:1044B000895C0029F2D10BE0002101E00199491C3F
:1044C00081420191FADB019A0399895C0029F5D1B7
:1044D00001990098139A401A0090149B210000F053
:1044E00049F901998019461807E003980399007863
:1044F000491C149A0391139990470198401E01900A
:10450000F3D2149B139A0098210000F023F9861926
:104510006D1C287803E005E049E03BE03CE0002822
:1045200000D003E7300015B0F0BD0A200021049050
:1045300060020591410F022905D001CFC21703295E
:10454000944607D00AE0FF1DFF08FF00796838682D
:10455000083708E000040014C2179446042903D168
:1045600000060016C1178C4600218C45624604DA0D
:10457000404291418C462D2102E0210504D52B219A
:104580006A461176012103E0E10701D02021F7E717
:10459000019155E00A200BE0102009E01020049062
:1045A00000210420044308200591029003E0082024
:1045B0000021059104906002410F022905D00022DC
:1045C00001CF0329944607D00AE0FF1DFF08FF0032
:1045D00079683868083708E00004000C0022944627
:1045E000042903D10006000E00218C460021019110
:1045F000210725D5714670292BD0049A059B1021DF
:104600004A401A4309D16146014306D030216A4627
:1046100011767146517602210191049A059B082179
:104620004A401A430CD16146014301D1610707D5C5
:1046300030216A461176012101910299491E0291A9
:104640007246582A39A100D03DA103910FA90F91BC
:1046500010E040216A4611760121DDE7059B049AAE
:104660006146FEF76CFD039B8C469B5C0F9A521EC5
:104670000F92137061460143F0D10F9807A9081AF1
:1046800020300390600703D501200004844301E03B
:1046900001200290039A02990020914200DD881ABD
:1046A00081180290019809180098401A0090E003C0
:1046B00006D4149B139A0098210000F05BF8861929
:1046C000002008E0049906A8405C149A13999047CA
:1046D0000498761C401C019904908842F2DBE003A8
:1046E0000CD5149B139A0098210000F043F886190A
:1046F00004E0149A139930209047761C0299481EC2
:1047000000290290F5DC08E00F980F990078491C09
:104710000F91149A13999047761C0399481E00290B
:104720000390F1DCEDE6000009280100303132335E
:10473000343536373839414243444546000000009D
:104740003031323334353637383961626364656607
:1047500000000000F8B5040017001E0000258804C2
:1047600004D405E039002020B0476D1C641EF9D543
:104770002800F8BDFFB581B004001E0000253027D9
:10478000C80300D42027880404D505E00399380025
:10479000B0476D1C641EF9D5280005B0F0BD0000BF
:1047A00070B51D481D4C0168A06801610169416137
:1047B0000269C1690901103951188161C169006933
:1047C0000901FEF79DFCA068806901214268C907C4
:1047D0000A434260A068006902680A431049026007
:1047E0000D68A168002210E04368CC6A6405640D7E
:1047F000234343608368CC6A544364192343836032
:1048000003001033C3601800521CCB699342EBD8ED
:1048100008698969C86070BD0801810018018100BC
:104820000401810010B51448144C0168A0680160AF
:10483000016841600268C16809011039511881603E
:10484000C16800680901FEF75BFCA068806801226E
:104850004168D20711434160A3681868002104E051
:1048600002001032C2601000491CDA688A42F7D890
:1048700018689968C86010BD0001810018018100A6
:10488000F7B5060084B07DD0069840892B287AD3EE
:104890000698456801202C000F3400F030FC617848
:1048A00022780902114388426DD1434800F027FC69
:1048B00001006079227900021043814276D1012003
:1048C000C00200F01CFC0100E078A2780002104356
:1048D00081426BD1394800F012FCAA7B6B7B01004E
:1048E00010021843814261D121000E31042202A836
:1048F0000091FEF7EBFB21001831042203A801917F
:10490000FEF7E4FB7068002804D00399814203D1CC
:10491000012702E0002704E00027002F01D0012337
:1049200000E0002322000832300002A904F0F4FD68
:10493000E079A1790002084300F0E1FB012802D0F0
:10494000022833D128E0002F30D0022000F0D7FB1E
:10495000A071000AE071009901980422FEF7B6FBED
:1049600000980422311DFEF7B1FB0621491E0906FD
:10497000090E6018027A6B1882745A70059A525C9C
:10498000027201E015E011E005980029405CD87141
:10499000ECD1B269069907E009480168002905D001
:1049A000C268002A02D002A930009047069801F0A0
:1049B00013FF07B0F0BD0000040600000608000069
:1049C00080A1810070B5050012D04C6820001B301A
:1049D0000600FEF7A1FB0100A8686A6801400240DA
:1049E000914205D10023E21D3100280004F094FD1E
:1049F00070BD0000FEB50D00040016000F21280058
:104A000001F00DFF002802D00120C043FEBD2100AF
:104A1000300000F02BFD002801D0284B2EE03000A4
:104A2000FEF77AFB07000F20000701F0CCFD0740DE
:104A30000720400701F0C7FD874226D101206946C3
:104A40000870002048705E2088703000FEF764FB1C
:104A500001F0B9FD4002400E6946C8703000FEF713
:104A60005BFB01F0B0FD000A694608713000FEF7FB
:104A700053FB01F0A8FD69466B46487122002732BE
:104A80002900200000F0E4F8FEBD3000FEF744FBF2
:104A90000100A068626801400240914204D0E068D1
:104AA000002807D026000C362A003100200000F034
:104AB00007F8FEBD0320C043FEBD0000FB950000CB
:104AC000F7B582B002980E00273001900020C04355
:104AD000009002991400300000F0C8FC002827D193
:104AE0003000FEF719FB05000F20000701F06BFDF9
:104AF00005400720400701F066FD854218D0002ED2
:104B000016D03000FEF708FB002811D0012130003C
:104B100000F078F900280DDB144F0501786828189B
:104B2000817A002908D0012908D0002C06D00EE097
:104B30000920C04305B0F0BD01218172FFF7BAF82A
:104B40000298310000F072F8002C00900BD07868C9
:104B50002B18987A022806D1019A02981B1D210071
:104B600000F076F800900098E4E700000C01810066
:104B7000FFB51F0000222B21032081B001F02CFD86
:104B800006004BD075680D982C000F3400F0B7FA72
:104B9000A071000AE0710620401E0006000E3A5C7B
:104BA00021180A720B9A125C8A7403990A5C2918FC
:104BB00000284A70029A125CCA71EDD120000A994D
:104BC00004220E30FEF782FA20000C9904221830DD
:104BD000FEF77CFA012000F092FA2070000A607063
:104BE0000120C00200F08BFAA070000AE0700D48AE
:104BF00000F085FA2071000A60710B4800F07FFA1E
:104C00006873000AA8730198310082699047040014
:104C1000300001F0E1FD200005B0F0BD0020C043F0
:104C2000FAE7000004060000060800001FB5012393
:104C3000064C0393021D03002733009202911900D2
:104C4000A21F0194FFF794FF04B010BD019600006D
:104C5000F8B54D680E0007000624641E2406240ED5
:104C6000195D2819002C4170115DC171F5D1012029
:104C7000C00200F044FA6873000AA873BA693100F0
:104C800038009047F8BD000030B51049104D4C6811
:104C9000002016E001010919CA7A521C1206120EF0
:104CA000CA728B7A022B02D0012B03D006E0F02AC5
:104CB00002D203E0022A01D300228A72401C0006BD
:104CC000000EE9688142E5D830BD00000C0181008A
:104CD00058A1810070B5040040680D00817B427BC3
:104CE0000802104300F00BFA0121C902401A02D059
:104CF00006280BD113E021002800FFF763FE0E21E8
:104D0000C943200001F08BFD002803D0200001F0F2
:104D100063FD0AE02900200000F076FC05E0290090
:104D2000220027312800FFF7ABFD002070BD0000F6
:104D300010B5C1610100652220318A736E22CA73E9
:104D4000034941610349816101F072F8002010BDFF
:104D5000F54900008D60000070B527490500C86B5B
:104D6000002848D02548026C2548D3070CD0C37BC7
:104D70005B065B0EC373C37B5B065B0EC373C37BB7
:104D80005B065B0EC3730BE0C37A5B065B0EC372FC
:104D9000C37A5B065B0EC372C37A5B065B0EC3729B
:104DA000C96BD3070906090E8022002B03D0C37BF1
:104DB0001343C37302E0C37A1343C37200291AD0AA
:104DC000280001F095F8040015D06068817B427BD3
:104DD0000802104300F093F90121C902401A01D0E2
:104DE000062805D12A69290020009047002802D012
:104DF000200001F0F1FC70BD5CA8810014A18100CD
:104E000040004000F3B5454887B0C6680024370627
:104E10003F164349009707980394019705944D68FE
:104E2000002850D00800007804900001029040193A
:104E3000807A022847D10798FEF76EF902996958DF
:104E4000884240D10498000665E0BE4204D12001AA
:104E50004019807A002809D020010490401902905E
:104E6000807A012805D0022818D029E027063F16AD
:104E700026E00798002807D0FEF74EF904996958F4
:104E8000884201D1264844E002980399C07A8842BA
:104E900016D3210609160091039011E00798002807
:104EA00005D0FEF739F9049969588842EAD002988A
:104EB0000599C07A884203D321060916019105900D
:104EC000641C2406240EA642BFD80020C043BE4264
:104ED00002D10899C9071FD0089989071CD4BE427E
:104EE00002D93C06240E07E001998E4202D80099AF
:104EF0008E4211D90C06240E260100207719B872B3
:104F00000798002802D0FEF707F9A85104480021AD
:104F1000F97204702006001609B0F0BD58A1810096
:104F20000C018100034904208968096A88310860FE
:104F3000704700001801810070B50B4DA868006A29
:104F40000468E00701D001F0CFFDE00605D5A868B0
:104F50004168C968416000202860A00503D5FEF7BC
:104F6000BBFDFEF785F970BD180181001CB501215C
:104F70000903019004480091026804490448012390
:104F800000F008F81CBD000058A1810090830000CB
:104F900023410000FFB5364C1D00606817000E006D
:104FA000002881B062D0A06800285FD0006A042188
:104FB00088300160FFF736FCA068C762FFF7F0FB9E
:104FC0000B99A06881620168006A0162A0680169AA
:104FD000006A4162A0682749006A274B416018684F
:104FE0008278417912068918C27800791204000289
:104FF00010180818A168096AC86018680178407814
:1050000009020818A1680004096A000C8860A068F9
:105010000A99006A8162A068006AC562A068006A95
:105020000663012001F062FC002001F05FFCA26831
:10503000116A124B88310968C50501D5194300E092
:10504000994383040E4801D5014300E08143106A6F
:1050500088300160A068016A019A88310968006A95
:1050600011430122520411438830016005B0F0BDA4
:1050700018018100B3030000EC00810000800000F3
:105080000000040070B5164C0D000600A0684068D2
:105090000068002801DAFEF7DBF8A168486886603E
:1050A00048684168C90FC9074160A06840686A053F
:1050B0000B234168520DDB061A4311434160A1687E
:1050C000180149680860A068016A898D0905090FFF
:1050D00002D1006A491E81610120206070BD00007C
:1050E00018018100FF2212020300134001061B0277
:1050F0001943030A13401943000E08437047010681
:10510000090C000A084370470A0010B5032100F09B
:10511000F7F810BDF3B5446805006078217887B0D2
:105120000002084301F053FA0005000F80004142DD
:1051300000902800029101F072FB002825D12889F7
:10514000042822D36E683078032802D00828F5D1CD
:105150001CE0307A310008310090707C327C0F0006
:1051600000021043040A0422103105A8FDF7AEFF27
:10517000009873780007800E38188178C078220074
:10518000090201430598FEF7D3FDB2E0200010307C
:1051900001260190FDF7C0FF07000F20000701F076
:1051A00012FA07400720400701F00DFA874200D1AC
:1051B00000260899019800F059F9002800D000262F
:1051C000FEF706FE00287DD0002E7BD02889082817
:1051D00078D3280000F0D6F8002873D122212800C7
:1051E00001F01DFB00281DD00099280001F017FBDD
:1051F00000287ED129890022022001F0EDF9060065
:1052000077D0290001F09AFA002872D174680299C7
:10521000300001F004FB00286BD1280001F0DCFA1B
:10522000350006E02121C943280001F0F8FA0028E2
:105230005FD120006E680C3003900490FDF76CFF86
:1052400007000590200010300190FDF765FF0499DC
:10525000FDF76CFF01993800FDF768FF002727482C
:105260003770FFF74CFF0100F078B278000210436E
:105270000122D202814204D81000FFF740FF401CF7
:1052800002E01000FFF73BFFF178B278090211430A
:105290004018B070000AF070607A217A000208436A
:1052A00001F095F900060121000EC9034018FFF72F
:1052B00026FF2072000A6072380AA7721421E07279
:1052C000200000E015E000F056F8A072000AE0723D
:1052D0000099280001F0A3FA00280AD108980121BA
:1052E000019102900399802300222800009700F08A
:1052F000D7FA280001F070FA09B0F0BDFFF70000FE
:10530000F7B50E0000222421012082B001F064F9DB
:10531000050028D002986C6847682670049800261B
:10532000607026716671A671E67102981C22416850
:1053300068680830FDF7CAFE300AA670E070698917
:10534000200000F018F8A070000AE07001203A0078
:10535000019080230C3200212800009600F086FA8C
:10536000280001F039FA05B0F0BD0A0010B50B2194
:10537000FFF7C6FF10BD10B500F0F0FEC0430004FB
:10538000000C10BDF8B5002405002600012715E02B
:105390006989686800F0E2FE0019010C0004000C45
:1053A0000C18A87AC00708D0B81B06062006000C07
:1053B0002104360E090E04000C432D68002DE7D1A0
:1053C000002E05D02006000C2104090E04000C4319
:1053D000E0430004000CF8BDFFB5002405002600E2
:1053E000012781B015E06989686800F0B7FE0019EF
:1053F000010C0004000C0C18A87AC00708D0B81BD8
:1054000006062006000C2104360E090E04000C438B
:105410002D68002DE7D1002E05D02006000C2104B8
:10542000090E04000C430298FDF776FE0104090CF6
:105430000919000C44180398FDF76EFE0104090CCD
:105440000919000C44180498FFF759FE04190A982A
:10545000FFF755FE0019010C0004000C0818010CA0
:105460000818C0430004000C05B0F0BD10B50C00D6
:10547000FDF752FE0200411C13D0002A11D02D214D
:10548000095D89070BD56168914208D0A0681300B7
:10549000034001408B4202D11043401C01D0002048
:1054A00010BD012010BDF7B504008AB00B9814257B
:1054B000808C0026009060680690C179827908028D
:1054C000104301F084F8C104C90C01910121490382
:1054D0000840079020891438070400983F0C1438BE
:1054E000C117490F089008184003000C029082E091
:1054F0000898874201DC012000E000200199079A0A
:10550000C904C90C1143002804911BD038000004C1
:10551000000C059000221421022001F05DF8002803
:10552000009017D0406806991422FDF7CFFD00982F
:10553000406803906068401960606089401B60812A
:10554000059D26E0080001214903084304900298C4
:10555000C000DCE70020C0430DB0F0BD6689AE425C
:1055600000D92E00002E13D002220021032001F0CA
:1055700033F8010044D0606848600E814E81009885
:1055800001F0B6F8A81B05042D0C04D02468E5E74B
:105590002468002DE2D104983500FFF7B0FD03998F
:1055A0008871000AC871059814300004000CFFF7D8
:1055B000A6FD03998870000AC870039800218172C3
:1055C000C17203981421FFF7D6FE03998872000A6E
:1055D000C8720B980C9A436900999847009801F09B
:1055E000FBF805980299381A070401983F0C4018F7
:1055F0000004000C0190002F00D079E70020ABE7F9
:10560000009801F0E9F8A5E7F3B5012085B0039013
:1056100005980E004568687829780002084300F074
:10562000D6FF000B042803D0059801F0D5F812E14D
:10563000687829780002084300F0C9FF0005000FD0
:1056400080000090E878A9780002084300F0BFFFCE
:1056500004000598418900988142E5D305980089A6
:10566000A042E1D300992800FFF785FE0028DBD196
:105670000598210001F008F901200290280010305F
:1056800001900F203400000700F09DFF0720400725
:1056900000F099FF200000F021FF00281ED0201DFF
:1056A0001CD06768002F19D00198FDF735FDB8426E
:1056B00023D001982100FFF7D9FE00281DD10198C1
:1056C000FDF72AFD07000F20000700F07CFF0740D0
:1056D0000720400700F077FF87420ED0029800288D
:1056E00004D0002002905D48046800E02468B442C1
:1056F00000D12468002CCDD101E0002C2FD1687A94
:10570000297A0002084300F062FF0006000E11280B
:105710000ED100982818C17882780802104300F052
:1057200056FF442804D100203400002E039016D1E7
:10573000687A297A0002084300F049FF0006000E4B
:1057400011280CD100982818C178827808021043DB
:1057500000F03DFF4249884201D134001FE0039828
:1057600000281CD028000C300700FDF7D5FC0028CD
:1057700015D031003800FFF779FE002800D053E73C
:105780003800FDF7C9FC07000F20000700F01BFFE1
:1057900007400720400700F016FF8742EFD0002C9B
:1057A000EDD03048FFF7ABFCE979AA790902114343
:1057B000084206D0059800F0FBF8002805904BD071
:1057C0004568294C31006660A560059801F0ECF849
:1057D00000283DD1687A297A0002084300F0F7FEDC
:1057E0000006000E012816D006280FD0112808D078
:1057F0002800310010300600FFF738FE00280FD0D7
:1058000023E00598310003F0DBFC21E0059831002E
:1058100001F0B0FD1CE005983100FFF77BFC17E0BC
:105820003000FDF779FC06000F20000700F0CBFEEA
:1058300006400720400700F0C6FE864205D00598C6
:10584000022145600598FFF75FFC059800F0C4FF52
:1058500000206060A060002007B0F0BD70008100F3
:105860006C070000FF3F000060018100FFB583B0BE
:105870000C9D0D9C1F001600100000F0AFFA0028D0
:105880000AD00290049903983B00320000950194DD
:1058900000F006F807B0F0BD0320C043FAE70000AF
:1058A000FFB5060081B003980C9D1F00002867D04B
:1058B000142001000090300000F0B1FF002803D058
:1058C0000120C04305B0F0BD7468607A217A0002FF
:1058D000084300F07CFE0006000E39020843FFF783
:1058E0000EFC010A2072617200F071FE0B99000A31
:1058F00000020843FFF703FC2072000A607203985D
:10590000FDF70AFC21001031FDF710FC0A99052073
:10591000000208430121890308430004000CFFF73B
:10592000EEFB2070000A60703089FFF7E8FBA07082
:10593000000AE07000201D4FA071E0713888FFF769
:10594000DEFB2071000A60713888401C38800298A4
:10595000002803D0FDF7E0FB002802D1281D00D06D
:10596000686821000C31FDF7E1FB0020A072E072B5
:1059700000992000FFF7FFFCA072000AE07202E02D
:10598000706810300390A88C002808D031898142BB
:1059900005D9039A29003000FFF785FD92E76B696E
:1059A0003100039A280098478CE7000060018100CD
:1059B000F1B584B00498002645686878297800021B
:1059C000084300F004FE0005000F05287ED1E879A9
:1059D000A9790002084300F0FAFDC004000C009011
:1059E000E878A9780002084300F0F1FD0400687827
:1059F00029780002084300F0EAFD0005000F80004E
:105A0000201A0004000C0190049800F08DFE5D4AFD
:105A100007005B48127C01885206C919120F914297
:105A200054D8446828000C300390001D029014E004
:105A30000398FDF771FB616988420CD10298FDF76C
:105A40006BFBA169884206D168792A79A189000295
:105A50001043814204D026002468002CE8D10AE0DB
:105A6000002C08D0E879A9790002084300F0AFFDC6
:105A7000C00417D021E0052000F0FEFC04000ED089
:105A80002021FDF73DFB0320E0773D4814224168CB
:105A900021604460200029000830FDF717FB002C2E
:105AA00069D00AE0E08900F092FDC00405D0200032
:105AB000142229000830FDF709FB31480188C91973
:105AC0000180E879A9790002084300E053E000F082
:105AD0007EFD800407D4A07F01210843A0770199AF
