:020000040000FA
:100000000B0000EA050000EA070000EA040000EA2D
:10001000040000EA42000000220000EA430000EA77
:10002000FEFFFFEAFEFFFFEAFEFFFFEAFEFFFFEA38
:10003000FEFFFFEA50009FE5DBF021E300D0A0E1E6
:10004000000040E2D7F021E300D0A0E1000040E250
:10005000D3F021E300D0A0E1100040E2D2F021E390
:1000600000D0A0E1010C40E2D1F021E300D0A0E1FA
:10007000010C40E21FF021E300D0A0E101AB4DE212
:100080005C0600EB010000EBFEFFFFEA00008200CF
:100090000CD09FE56E0800FA00009FE510FF2FE1ED
:1000A000200E000000FC81000F502DE90105A0E3A7
:1000B000400090E5020910E30000000AFB0800FA86
:1000C0000105A0E3400090E5010010E30600000AEE
:1000D0000A00A0E34C0A00FA18039FE50600D0E5E9
:1000E000FF0080E30C139FE50600C1E50105A0E3D6
:1000F000400090E5020010E30A00000ACC0400EB87
:10010000F4029FE50000D0E5010080E2E8129FE5DF
:100110000000C1E5DC029FE50604D0E5FF0080E3B6
:10012000D0129FE50604C1E50F50BDE804F05EE281
:100130000000A0E1FEFFFFEA0200A0E3B4129FE589
:100140000000C1E50000A0E3080081E5AC029FE5E6
:100150000C0081E50000C1E10200D0E5010080E370
:100160000200C1E50400A0E30000C1E51EFF2FE18D
:100170000105A0E34800D0E5010080E30115A0E3FC
:100180004800C1E50105A0E34900D0E5800080E317
:100190004900C1E50105A0E34B00D0E5800080E304
:1001A0004B00C1E51EFF2FE110402DE90040A0E10A
:1001B000000054E30000001A1080BDE80410A0E124
:1001C0008F0F8FE2320C00FA0000A0E1F9FFFFEA86
:1001D000F0412DE918D04DE20040A0E10150A0E12E
:1001E0000260A0E10370A0E1C50800FA060050E338
:1001F0000200000AFC00A0E318D08DE2F081BDE807
:100200000C029FE50C129FE5000081E508029FE5C6
:1002100004008DE5860FA0E308008DE5FE0E80E268
:100220000C008DE51000A0E310008DE57B00A0E33D
:1002300014008DE504008DE2940800FA0730A0E177
:100240000620A0E10510A0E10400A0E1AD0800FA3D
:100250000080A0E10800A0E1E6FFFFEAFC412DE9F3
:100260000080A0E10160A0E1B0719FE5040016E309
:100270005F00000A0010A0E30800A0E1CC0900FA2A
:1002800004008DE5660F8FE204109DE5000C00FA76
:1002900004208DE29C119FE50800A0E15C0900FAB2
:1002A00094119FE594219FE5002092E5020081E0F2
:1002B00080119FE504209DE5B00700FA7C019FE5D1
:1002C000000090E504109DE5010080E06C119FE5C1
:1002D000000081E5430000EA60019FE5000090E531
:1002E000040050E33900003A4C019FE50100D0E5DD
:1002F00044119FE50010D1E5014480E13C019FE5F8
:10030000000090E5040050E12F00003A0420A0E135
:1003100024119FE528019FE5980700FA0050A0E30B
:10032000040000EA040085E00C119FE50000D1E71D
:100330000500C1E7015085E200019FE5000090E55E
:10034000040040E0050050E1F5FFFF8AEC009FE566
:10035000000090E5040040E0E0109FE5000081E52A
:10036000210100EBB4709FE5140000EAD4009FE582
:10037000000090E500008DE50D20A0E10710A0E150
:100380000800A0E1900900FAB8009FE5000090E5A0
:1003900000109DE5010040E0A8109FE5000081E508
:1003A00000009DE5007087E0000081E2000090E51C
:1003B000000050E30000000A000000EA010000EA2B
:1003C0000000A0E1E8FFFFEA000000EA070000EA01
:1003D00068009FE5000090E5040050E30000003A4B
:1003E000000000EA010000EA0000A0E1B9FFFFEA16
:1003F0000000A0E1FC81BDE8008040001000810009
:1004000040420F004572726F723A20253032580A0E
:1004100000000000E42455021C008100EC050000EF
:10042000BC7F810052656365697665204C656E20EE
:100430003D20253032780A00A4718100E4778100E4
:1004400008008100247E81001400810070402DE9A5
:10045000190800FA0060A0E1010016E30B00000A91
:10046000F8009FE5301090E5F4008FE2880B00FA69
:10047000E8009FE5341090E5F8008FE2840B00FA65
:10048000D8009FE5381090E5FC008FE2800B00FA61
:10049000040016E30400000A0C0800FA0040A0E182
:1004A0000410A0E1F4008FE2790B00FA100016E3CB
:1004B0000D00000A0040A0E3090000EA0400A0E1EA
:1004C000060800FA0050A0E1000055E30200000A0F
:1004D0000510A0E10400A0E15FFFFFEB010084E252
:1004E000FF4000E2040054E3F3FFFFBA7080BDE870
:1004F00010402DE940D04DE23C10A0E304008DE215
:100500002B0700FAB0009FE5B010D0E1B013CDE1A9
:10051000B200D0E1B203CDE1A0009FE528008DE557
:10052000FA0F80E22C008DE50200A0E320008DE5AB
:100530008C009FE50C008DE5190DA0E310008DE502
:1005400004108DE27C009FE5480800FA0040A0E11D
:100550000400A0E113FFFFEB40D08DE21080BDE866
:10056000A48B8100556E7265616368436F6465207A
:10057000A3BA25640A000000556E72656163685075
:10058000726F746F20A3BA25640A0000556E7265FD
:10059000616368506F727420A3BA25640A0000007A
:1005A00047494E545F535441545F5048595F434844
:1005B000414E474520253032780A0000B2850000C0
:1005C00078690000646B81000C0081000105A0E3E4
:1005D000C300D0E58000C0E30115A0E3C300C1E57E
:1005E0000105A0E3A000D0E57F00C0E3A000C1E5C5
:1005F0000105A0E3A200D0E50F00C0E3A200C1E521
:100600000105A0E3C100D0E50F00C0E3C100C1E5D2
:100610000105A0E3C100D0E5F00080E3C100C1E521
:100620000105A0E3800090E554189FE5010080E1FA
:100630000115A0E3800081E50105A0E3D300D0E52A
:10064000800080E3D300C1E50105A0E3B000D0E560
:100650007F0080E3B000C1E50105A0E3B200D0E572
:100660000F0080E3B200C1E50105A0E3D100D0E5B1
:100670000F0080E3D100C1E50105A0E3C900D0E58A
:10068000F00080E3C900C1E50105A0E3880090E522
:10069000EC179FE5010080E10115A0E3880081E5EA
:1006A0000105A0E3A100D0E5F300C0E3A100C1E58E
:1006B0000105A0E3C000D0E5FF00C0E3C000C1E534
:1006C0001EFF2FE170402DE9B8479FE50A10A0E317
:1006D0000400A0E1940600FA0150A0E10A10A0E392
:1006E0000400A0E1900600FA0040A0E1050055E3F7
:1006F0000000003A014084E28000A0E388179FE5F3
:100700000308C1E50100A0E30708C1E50408A0E172
:10071000200CA0E10108C1E50048C1E50300A0E309
:100720000308C1E5C700A0E30208C1E54000A0E35B
:100730000108C1E50105A0E3BC0090E5030B80E3DF
:100740000115A0E3BC0081E50105A0E3B40090E53C
:10075000010BC0E3B40081E50105A0E3A00090E532
:10076000020B80E3A00081E57080BDE818379FE5AB
:100770000008C3E50000A0E10C279FE50528D2E5AD
:10078000200012E3FBFFFF0A1EFF2FE11EFF2FE1F7
:100790000200A0E3F4169FE50004C1E50000A0E319
:1007A000080481E5E8069FE50C0481E54002C1E10B
:1007B0000204D0E5010080E30204C1E50400A0E3E7
:1007C0000004C1E50105A0E34800D0E5020080E394
:1007D0000115A0E34800C1E50105A0E34B00D0E509
:1007E000800080E34B00C1E51EFF2FE1F05F2DE9A3
:1007F000A0069FE5B000D0E14004A0E194169FE57B
:10080000B010D1E1010480E1FF78C0E384069FE5E8
:10081000B200D0E14004A0E178169FE5B210D1E12A
:10082000010480E1FF68C0E30090A0E368069FE553
:100830000300D0E54004A0E15C169FE50310D1E57C
:1008400001A480E100B0A0E30080A0E3A20056E391
:100850002200001AB090A0E3011AA0E30000A0E378
:10086000930400EB042047E230169FE50000A0E36C
:10087000940400EB042047E224169FE50000A0E367
:10088000830400EB0050A0E30C0000EA10069FE593
:10089000850080E0B000D0E10004A0E100169FE5F3
:1008A000851081E0B010D1E1410480E1FF08C0E390
:1008B000EC159FE5851081E0B000C1E1015085E2B3
:1008C000A71F87E0C110A0E1021041E2050051E13D
:1008D000EDFFFFCA0400A0E3B0159FE50004C1E5E9
:1008E000FF0056E32000001AFF90A0E3020BA0E3F4
:1008F000B0159FE5B000C1E1000081E2B290C0E117
:100900000800A0E3A0159FE5000081E50105A0E334
:10091000C700D0E50110A0E3C00301E00115A0E38A
:10092000A410D1E5810080E10115A0E3A610D1E576
:100930000F1001E20125A0E3C520D2E5F030A0E3CD
:10094000022203E0021081E101B480E154059FE539
:10095000B4A0C0E1B6B0C0E14C059FE544159FE5E9
:10096000002090E544059FE5040600FAFE0056E3EA
:10097000A500001AFE90A0E30A0CA0E324159FE551
:10098000B000C1E1000081E2B290C0E10A00A0E342
:1009900014159FE5000081E50050A0E30F0000EA78
:1009A000F8049FE5850080E0B000D0E10A0050E146
:1009B0000900001AE4049FE5011085E2810080E04F
:1009C000B010D0E1D4049FE5022085E2820080E0EF
:1009D000B000D0E1008881E1050000EA035085E223
:1009E000040047E20610A0E3DA0500FA050050E132
:1009F000EAFFFFCA0000A0E10040A0E36E0000EAA9
:100A00003804A0E1010000E2010050E33300001AC5
:100A1000000054E3090000BA030054E3070000CAD1
:100A20000105A0E3C900D0E5041084E20120A0E3A1
:100A3000120180E10115A0E3C900C1E55D0000EAF3
:100A40000B0054E3070000CA0105A0E38800D0E5CD
:100A5000041044E20120A0E3120180E10115A0E3AB
:100A60008800C1E5530000EA0F0054E3070000CA04
:100A70000105A0E38900D0E5081044E20120A0E3CD
:100A8000120180E10115A0E38900C1E5490000EAF7
:100A9000130054E3070000CA0105A0E38900D0E574
:100AA000101044E20120A0E3120180E10115A0E34F
:100AB0008900C1E53F0000EA150054E33D0000CA8B
:100AC0000105A0E38A00D0E5141044E20120A0E370
:100AD000120180E10115A0E38A00C1E5350000EABA
:100AE0003804A0E1010010E33200001A000054E3D2
:100AF000090000BA030054E3070000CA0105A0E39F
:100B0000C900D0E5041084E20120A0E31201C0E195
:100B10000115A0E3C900C1E5260000EA0B0054E37B
:100B2000070000CA0105A0E38800D0E5041044E2F4
:100B30000120A0E31201C0E10115A0E38800C1E596
:100B40001C0000EA0F0054E3070000CA0105A0E3FF
:100B50008900D0E5081044E20120A0E31201C0E1C1
:100B60000115A0E38900C1E5120000EA130054E377
:100B7000070000CA0105A0E38900D0E5101044E297
:100B80000120A0E31201C0E10115A0E38900C1E545
:100B9000080000EA150054E3060000CA0105A0E3BE
:100BA0008A00D0E5141044E20120A0E31201C0E164
:100BB0000115A0E38A00C1E5014084E2150054E379
:100BC0008EFFFFDADC029FE5B4A0C0E1CC029FE516
:100BD000011085E2810080E0B000D0E1C4129FE501
:100BE000B600C1E1B4029FE5021085E2810080E019
:100BF000B000D0E1AC129FE5B800C1E1A8029FE5CA
:100C0000002090E5A4029FE55C0500FAFD0056E394
:100C10002000001AFD90A0E30A0CA0E384129FE5D7
:100C2000B000C1E1000081E2B290C0E10A00A0E39F
:100C300074129FE5000081E50080E0E30040A0E33E
:100C4000070000EA68029FE5840080E0B006D0E17A
:100C5000010050E30100001A0100A0E31084C8E184
:100C6000014084E2150054E3F5FFFFDA34029FE50A
:100C7000B4A0C0E1001080E2B680C1E134029FE57B
:100C8000280800E0B800C1E11C029FE5002090E5C3
:100C900018029FE5390500FAA10056E31800001A72
:100CA000A190A0E3020BA0E3F8119FE5B000C1E121
:100CB000000081E2B290C0E10800A0E3E8119FE5E6
:100CC000000081E5D0019FE50300D0E5E4119FE538
:100CD000000401E0CC119FE5B400C1E1D8019FE51B
:100CE0000000D0E5CC119FE5000401E0B4119FE5C0
:100CF000B600C1E1B0019FE5002090E5AC019FE5A1
:100D00001E0500FAFC0056E30200001A0100A0E3F1
:100D10009C119FE5B00CC1E1F09FBDE810402DE9AA
:100D20000030A0E10120A0E10000A0E3011042E2B8
:100D3000060000EA53C1A0E101C00CE2014042E21A
:100D4000014044E01CC480E1FF000CE2011041E2DC
:100D5000000051E3F6FFFFAA1080BDE80105A0E303
:100D6000A500D0E5000FA0E1200DA0E10115A0E352
:100D7000A510D1E5301001E2010180E10115A0E3E9
:100D8000A510D1E5C01001E2410380E10115A0E307
:100D9000C410D1E5031001E2010180E1F8109FE5E4
:100DA0000300C1E50105A0E3C400D0E5FC0000E2BA
:100DB0004001A0E100119FE50000C1E51EFF2FE109
:100DC00010402DE97F2FA0E3D4109FE50000A0E3A1
:100DD0002F0300EB0040A0E30D0000EAC0009FE5F8
:100DE000840080E0B000D0E10004A0E1B0109FE5F5
:100DF000841081E0B010D1E1410480E1FF08C0E33C
:100E00009C109FE5841081E0B000C1E1010084E204
:100E1000FF4000E2FE0054E3EFFFFFBA1080BDE8A0
:100E20000040A0E3E8FDFFEB25FEFFEB57FEFFEBE4
:100E3000C9FFFFEB84309FE584209FE584109FE588
:100E400054009FE5E1FCFFEBFF4000E20400A0E15D
:100E5000D4FCFFEBB7FCFFEBC4FCFFEBA3FDFFEB07
:100E600064008FE20A0900FA040000EAE40500FACF
:100E7000EE0500FA000050E30000000A72FDFFEBEF
:100E8000F9FFFFEAFFFF03003D04000000D040002F
:100E90000080400020A10700247E81000000810026
:100EA000287E8100A4838100F07E810014008100EF
:100EB000BC7F8100A4878100FFFF00000400810047
:100EC000A4850000AE850000AA85000043483536A1
:100ED0003349504C6962496E697420537563636588
:100EE00073730A00F0412DE90020A0E10040A0E367
:100EF0000130A0E1040051E30600001AE45A9FE526
:100F0000825085E0016043E2866086E0865285E09B
:100F100020C085E2040000EAC85A9FE5825085E0BF
:100F2000016043E2866086E086C285E0010051E30D
:100F30001200001A0155A0E3C750D5E50160A0E3F7
:100F4000C55306E00165A0E3A460D6E5865085E1BF
:100F50000165A0E3A660D6E50F6006E20175A0E397
:100F6000C570D7E5F080A0E3077208E0076086E16E
:100F7000064485E10160A0E35402C6E1000000EAF6
:100F8000B000DCE1F081BDE870402DE90130A0E166
:100F9000020053E36A00001A000052E33300001A13
:100FA000000050E3090000BA030050E3070000CA44
:100FB0000145A0E3C940D4E5045080E20160A0E30C
:100FC000164584E10155A0E3C940C5E55C0000EA8F
:100FD0000B0050E3070000CA0145A0E38840D4E5B8
:100FE000045040E20160A0E3164584E10155A0E30E
:100FF0008840C5E5520000EA0F0050E3070000CA30
:101000000145A0E38940D4E5085040E20160A0E337
:10101000164584E10155A0E38940C5E5480000EA92
:10102000130050E3070000CA0145A0E38940D4E55E
:10103000105040E20160A0E3164584E10155A0E3B1
:101040008940C5E53E0000EA150050E33C0000CAB7
:101050000145A0E38A40D4E5145040E20160A0E3DA
:10106000164584E10155A0E38A40C5E5340000EA55
:10107000010052E33200001A000050E3090000BAF8
:10108000030050E3070000CA0145A0E3C940D4E5CE
:10109000045080E20160A0E31645C4E10155A0E3DD
:1010A000C940C5E5260000EA0B0050E3070000CA6E
:1010B0000145A0E38840D4E5045040E20160A0E38C
:1010C0001645C4E10155A0E38840C5E51C0000EACF
:1010D0000F0050E3070000CA0145A0E38940D4E5B2
:1010E000085040E20160A0E31645C4E10155A0E3C9
:1010F0008940C5E5120000EA130050E3070000CA6A
:101100000145A0E38940D4E5105040E20160A0E32E
:101110001645C4E10155A0E38940C5E5080000EA91
:10112000150050E3060000CA0145A0E38A40D4E55B
:10113000145040E20160A0E31645C4E10155A0E36C
:101140008A40C5E50F1003E2040051E30700001ACE
:1011500090489FE5804084E0015041E2855085E061
:101160001060A0E3055286E085C084E0040000EA38
:1011700070489FE5804084E0015041E2855085E061
:1011800085C284E0B020CCE17080BDE8F0432DE959
:101190000060A0E10170A0E10250A0E10380A0E1A5
:1011A00044989FE5054189E0010058E31200001AC8
:1011B000000094E50100C0E3011006E2010080E1B7
:1011C000000084E5000094E50200C0E3000084E52F
:1011D000000094E5030000E20310E0E3051101E0E4
:1011E000010080E1000084E50020A0E30410A0E3FA
:1011F0000500A0E163FFFFEB3D0000EA010056E3BC
:101200003800001A000094E5000FA0E1A00FB0E143
:101210001500001A000094E5030000E20310E0E36B
:10122000071101E0010080E1000084E5000094E581
:10123000030000E20120A0E3001094E5211162E028
:101240000320E0E3011102E0010080E1000084E5F9
:10125000000094E5010080E3000084E5000094E5CF
:10126000020080E3000084E5210000EA000094E52C
:10127000010010E31700001A000094E52001A0E12E
:10128000000050E3080000DA000094E5030000E2EB
:101290000120A0E3001094E5211162E00320E0E3C7
:1012A000011102E0010080E1000084E5000094E506
:1012B000010080E3000084E5000094E52001B0E136
:1012C0000B00001A0120A0E30410A0E30500A0E138
:1012D0002CFFFFEB060000EA000094E5010080E32C
:1012E000000084E5020000EA000094E50100C0E38C
:1012F000000084E5F083BDE8F0412DE90060A0E145
:101300000170A0E10250A0E1E0869FE5054188E080
:10131000010056E32500001A000094E5010010E3E7
:101320000D00001A000094E5010080E3000084E550
:10133000000094E5010000E20110E0E3871001E005
:10134000010080E1000084E50020A0E30510A0E397
:101350000500A0E10BFFFFEB340000EA000094E57C
:10136000010000E20520A0E3001094E5A11062E076
:101370000120E0E3811002E0010080E1000084E54B
:101380000410A0E3000094E5A00051E1270000BA9A
:101390000120A0E30510A0E30500A0E1F9FEFFEBAA
:1013A000000094E50100C0E3000084E51F0000EAAE
:1013B000000094E5010000E2010050E31400001A6F
:1013C000000094E5010000E20520A0E3001094E590
:1013D000A11062E00120E0E3811002E0010080E161
:1013E000000084E50410A0E3000094E5A00051E1B2
:1013F0000E0000BA0120A0E30510A0E30500A0E163
:10140000E0FEFFEB000094E50100C0E3000084E58E
:10141000060000EA000094E5010000E2000084E517
:101420000020A0E30510A0E30500A0E1D5FEFFEB3E
:10143000F081BDE8F04F2DE988D04DE20040A0E3F7
:101440000090A0E30150A0E3A4859FE50100A0E384
:101450000C008DE55E0100EA0860A0E10860A0E1F3
:10146000028088E2B000D8E1FF0C00E200008DE5C8
:10147000B000D8E1FF7000E2028088E200009DE544
:10148000F70C50E3D800000A140000CAF20C50E335
:101490008E00000A080000CA160050E3AC00000AE3
:1014A000EF0C50E32000000A0F0A50E32200000A6C
:1014B000F10C50E34501001A170000EAF30C50E369
:1014C0003501000A3D0B50E32901000AF50C50E3F9
:1014D0001C01000AF60C50E33C01001ACE0000EAA1
:1014E000FF0010E33901001A4004A0E1F80040E2D7
:1014F000080050E300F18F30340100EAFB0000EAFD
:10150000E40000EA5D0000EA4D0000EA380000EA6D
:10151000280000EA170000EA0B0000EA0000A0E142
:101520000040A0E30090A0E3280100EA0000A0E151
:101530000040A0E30090A0E3240100EA0000A0E145
:101540000000A0E30C008DE5200100EA0000A0E10E
:10155000B000D6E10710A0E161FEFFEB0050A0E172
:101560004C008DE2840080E0B050C0E1010084E2D4
:101570000148C0E3150100EA0000A0E1B000D6E197
:101580000710A0E156FEFFEB0050A0E1010055E37B
:101590000100001A0050A0E3000000EA0150A0E39F
:1015A0004C008DE2840080E0B050C0E1010084E294
:1015B0000148C0E3050100EA0000A0E1B000D6E167
:1015C0000710A0E146FEFFEB0050A0E1010044E25D
:1015D0004C108DE2800081E0B000D0E1050000E019
:1015E000011044E24C208DE2811082E0B000C1E1A4
:1015F000F60000EA0000A0E1B000D6E10710A0E18B
:1016000037FEFFEB0050A0E1010055E30100001A96
:101610000050A0E3000000EA0150A0E3010044E212
:101620004C108DE2800081E0B000D0E1050000E0C8
:10163000011044E24C208DE2811082E0B000C1E153
:10164000E20000EA0000A0E1B000D6E10710A0E14E
:1016500023FEFFEB0050A0E1010044E24C108DE2BC
:10166000800081E0B000D0E1050080E1011044E29B
:101670004C208DE2811082E0B000C1E1D30000EA8D
:101680000000A0E1B000D6E10710A0E114FEFFEBDE
:101690000050A0E1010055E30100001A0050A0E352
:1016A000000000EA0150A0E3010044E24C108DE28A
:1016B000800081E0B000D0E1050080E1011044E24B
:1016C0004C208DE2811082E0B000C1E1BF0000EA51
:1016D0000000A0E1010044E24C108DE2800081E0B6
:1016E000B050D0E1020057E30100000A030057E3C5
:1016F0000400001AB000D6E10520A0E10710A0E127
:1017000020FEFFEB110000EA040057E30700001A77
:1017100008B0A0E1028088E2B020D6E1B010DBE1A1
:101720000030A0E30500A0E197FEFFEB070000EA10
:10173000050057E30500001A08A0A0E1028088E236
:10174000B020D6E1B010DAE10500A0E1E9FEFFEB40
:101750009E0000EA0000A0E1010044E24C108DE28E
:10176000800081E0B050D0E1010055E30100001A93
:101770000050A0E3000000EA0150A0E3020057E39C
:101780000100000A030057E30400001AB000D6E18C
:101790000520A0E10710A0E1FAFDFFEB110000EA2F
:1017A000040057E30700001A08B0A0E1028088E2B5
:1017B000B020D6E1B010DBE10030A0E30500A0E1ED
:1017C00071FEFFEB070000EA050057E30500001A71
:1017D00008A0A0E1028088E2B020D6E1B010DAE1F2
:1017E0000500A0E1C3FEFFEB780000EA0000A0E1E5
:1017F000010044E24C108DE2800081E0B050D0E165
:10180000010055E30300001AB000D6E10120A0E377
:101810000710A0E1DBFDFFEB6C0000EA0000A0E197
:10182000010044E24C108DE2800081E0B050D0E134
:10183000010055E31600001A020057E30100000AF8
:10184000030057E30400001AB000D6E10020A0E333
:101850000710A0E1CBFDFFEB0D0000EA040057E309
:101860000500001AB020D6E1B010DBE10130A0E3A2
:101870000500A0E144FEFFEB050000EA050057E388
:101880000300001AB020D6E1B010DAE10000A0E3B6
:1018900098FEFFEB4D0000EA0000A0E1010044E2E9
:1018A0004C108DE2800081E0B000D0E108008DE5B1
:1018B000020044E24C108DE2800081E0B000D0E1F3
:1018C00004008DE5010044E20048A0E12448A0E1C5
:1018D00008009DE504109DE5015000E0010044E290
:1018E0004C108DE2800081E0B050C0E1370000EA8A
:1018F0000000A0E1010044E24C108DE2800081E094
:10190000B000D0E108008DE5020044E24C108DE209
:10191000800081E0B000D0E104008DE5010044E2E8
:101920000048A0E12448A0E108009DE504109DE5E1
:10193000015080E1010044E24C108DE2800081E022
:10194000B050C0E1210000EA0000A0E1010044E243
:101950004C108DE2800081E0B050D0E110008DE2AB
:10196000890080E0B050C0E1010089E20198C0E345
:10197000160000EA0000A0E1010049E210108DE22B
:10198000800081E0B050D0E1010044E24C108DE2D3
:10199000800081E0B050C0E10C0000EA0000A0E14E
:1019A000010049E210108DE2800081E0B050D0E1EA
:1019B000010044E24C108DE2800081E0B050C0E1B3
:1019C000010049E20098A0E12998A0E10000A0E10F
:1019D0000000A0E10C009DE5000050E39DFEFF1A11
:1019E00088D08DE2F08FBDE8A4878100A48A8100B1
:1019F000A4898100A48381005700A0E30115A0E31E
:101A00000000C1E5A800A0E30000C1E51400A0E3C8
:101A10000B00C1E50200A0E30A00C1E5BC00A0E3A1
:101A20000900C1E58000A0E30400C1E50000A0E3D7
:101A30000000C1E51EFF2FE10010A0E1040000EA54
:101A40001800A0E3000000EA010040E2000050E3BB
:101A5000FCFFFF1A0120B0E1011041E2F7FFFF1A7D
:101A60001EFF2FE10010A0E1040000EA1C009FE52A
:101A7000000000EA010040E2000050E3FCFFFF1A12
:101A80000120B0E1011041E2F7FFFF1A1EFF2FE134
:101A9000465F0000023080E0070A53E310402DE962
:101AA000FA00A0831080BD88A90000EB0000A0E32D
:101AB0001080BDE8012080E0070A52E3BF00009AD1
:101AC000FA00A0831EFF2FE1023080E0070A53E3F3
:101AD000C200009AFA00A0831EFF2FE10010A0E3CD
:101AE0000125A0E31A10C2E50710A0E31A10C2E511
:101AF0000115A0E31800C1E51EFF2FE10000A0E1E1
:101B00000105A0E31A00D0E5800010E3FBFFFF1AF7
:101B10000000A0E30115A0E31A00C1E51EFF2FE1BC
:101B20000000A0E10115A0E31A10D1E5800011E347
:101B3000FBFFFF1A0115A0E31800C1E51EFF2FE10E
:101B40000000A0E10105A0E31A00D0E5800010E349
:101B5000FBFFFF1A0105A0E31800D0E51EFF2FE1EF
:101B600004E02DE50020A0E10214A0E1210CA0E199
:101B7000EAFFFFEB0218A0E1210CA0E1E7FFFFEB79
:101B8000FF0002E2E5FFFFEB04F09DE404E02DE539
:101B90000030A0E10600A0E3CFFFFFEBD6FFFFEB94
:101BA0000300A0E1CCFFFFEB04F09DE410402DE921
:101BB000D1FFFFEB0040A0E30A0000EA0500A0E32C
:101BC000C5FFFFEBDDFFFFEBDCFFFFEB0030A0E12B
:101BD000C9FFFFEB010013E30100001A0000A0E3BE
:101BE0001080BDE8014084E20A0754E3F2FFFF3AA7
:101BF000FF00A0E3F9FFFFEA30402DE90030A0E14B
:101C00004B00A0E3B4FFFFEB0000A0E3D3FFFFEB2A
:101C1000CAFFFFEBC9FFFFEB0340A0E10750A0E3C1
:101C20000000A0E1C5FFFFEB0500C4E70500B0E13F
:101C3000015045E2FAFFFF1AAFFFFFEB3080BDE82D
:101C400004E02DE5B900A0E3A3FFFFEBAAFFFFEB43
:101C500004F09DE404E02DE5AB00A0E39EFFFFEB64
:101C60000030A0E3010000EAA3FFFFEB013083E2B4
:101C7000320053E3FBFFFFBA04F09DE4F0412DE98D
:101C80000040A0E10150A0E10270A0E18C849FE53A
:101C9000080004E0005085E0085085E00850C5E1E8
:101CA0000840C4E1070054E10100003AFE00A0E34F
:101CB000F081BDE8050084E0070050E10100009AD2
:101CC000FA00A0E3F9FFFFEA8408A0E1A008B0E170
:101CD0000E00001A0B0000EA5200A0E3AAFFFFEB7F
:101CE0000400A0E19DFFFFEBAFFFFFEB0060A0E170
:101CF000000056E30100000A0600A0E1EBFFFFEA46
:101D0000024984E2025945E2020955E3F1FFFF2A44
:101D10000B0000EA2000A0E39BFFFFEB0400A0E122
:101D20008EFFFFEBA0FFFFEB0060A0E1000056E399
:101D30000100000A0600A0E1DCFFFFEA014A84E29C
:101D4000015A45E2010A55E3F1FFFF2A0000A0E332
:101D5000D6FFFFEAF0402DE90030A0E10140A0E10C
:101D60000250A0E10470A0E11E3983E2020753E3B0
:101D70000000003AF080BDE8026763E2060055E12A
:101D80000000009A0650A0E10B00A0E352FFFFEB19
:101D90000300A0E171FFFFEB68FFFFEB67FFFFEBC4
:101DA000010000EA65FFFFEB0100C7E40500B0E1B8
:101DB000015045E2FAFFFF1A4FFFFFEBECFFFFEA8D
:101DC00030402DE90040A0E10150A0E10227A0E34E
:101DD0000510A0E11E0984E2A7FFFFEB3080BDE8FB
:101DE000F0412DE90040A0E10160A0E10270A0E116
:101DF0001E4984E2020754E30100003AFE00A0E31A
:101E0000F081BDE8070084E0020750E30100009A7A
:101E1000FA00A0E3F9FFFFEA0680A0E1140000EA5F
:101E20000200A0E358FFFFEB0400A0E14BFFFFEB33
:101E30000000A0E10100D8E438FFFFEB014084E29C
:101E4000010047E20070B0E10000001A010000EA62
:101E5000FF0014E3F6FFFF1A0000A0E152FFFFEBC2
:101E60000050A0E1000055E30100000A0500A0E1D8
:101E7000E2FFFFEA000057E3E8FFFF1A0000A0E3DB
:101E8000DEFFFFEA30402DE90040A0E10150A0E173
:101E90001E29A0E30510A0E1010784E276FFFFEB15
:101EA0003080BDE8F74F2DE90040A0E10250A0E1ED
:101EB00004609DE53F42C4E3014784E21E0954E308
:101EC0000100003AFE00A0E3FE8FBDE8050084E0BB
:101ED0001E0950E30100009AFA00A0E3F9FFFFEAAF
:101EE0002551A0E138A29FE538B29FE5300000EA15
:101EF0000200A0E324FFFFEB0400A0E117FFFFEBCB
:101F00000000A0E1049096E40980A0E10890A0E11F
:101F10000A8028E0080019E30000000A028228E293
:101F20000B8008E0010919E30000000A018788E33B
:101F3000010719E30000000A018988E3020419E39C
:101F40000000000A028388E3020319E30000000A8C
:101F5000028488E3FF0008E2F0FEFFEB0818A0E12E
:101F6000210CA0E1EDFEFFEB0814A0E1210CA0E1A3
:101F7000EAFEFFEB280CA0E1E8FEFFEB044084E260
:101F8000010045E20050B0E10000001A010000EA43
:101F9000FF0014E3DAFFFF1A0000A0E102FFFFEBED
:101FA0000070A0E1000057E30100000A0700A0E173
:101FB000C4FFFFEA000055E3CCFFFF1A0000A0E3D6
:101FC000C0FFFFEAF0472DE90030A0E10140A0E1A9
:101FD0000250A0E10460A0E1013783E21E0953E34F
:101FE0000100003AFE00A0E3F087BDE82551A0E122
:101FF0002C919FE52CA19FE50B00A0E3B6FEFFEB23
:102000000300A0E1D5FEFFEBCCFEFFEBCBFEFFEB28
:102010001E0000EAC9FEFFEB0010A0E1C7FEFFEBC7
:10202000001481E1C5FEFFEB001881E1C3FEFFEB68
:10203000007C81E10780A0E10870A0E1098028E030
:10204000080017E30000000A028228E20A8008E084
:10205000010917E30000000A018788E3010717E37D
:102060000000000A018988E3020417E30000000A67
:10207000028388E3020317E30000000A028488E376
:10208000040096E4080050E10000000A020000EAA3
:102090000500B0E1015045E2DDFFFF1A0000A0E1BC
:1020A00095FEFFEB010085E2CEFFFFEA04E02DE59F
:1020B0003500A0E388FEFFEBA0FEFFEB9FFEFFEBE9
:1020C000C031A0E10000A0E30115A0E31A00C1E5C2
:1020D000070023E2070000E204F09DE410402DE930
:1020E0000040A0E10100A0E3A7FEFFEB7C0004E2BA
:1020F0008AFEFFEB000054E30300000A200014E313
:102100000100001A4210A0E3000000EA0210A0E360
:10211000FF0001E281FEFFEBA3FEFFEB1080BDE8B4
:10212000FF0F000080800001FFBFFBF50B000100E6
:102130000020202230B5012409E00D00D5409D4249
:1021400005D31D009540491B2500954040191500F9
:10215000521E002DF1DC30BD70B500242500002892
:1021600001DA01244042002901DA01254942FFF742
:10217000DDFFAC4200D04042002C00D0494270BD8F
:1021800003000B439B0703D009E008C9121F08C0D6
:10219000042AFAD203E00B78491C0370401C521E3B
:1021A000F9D270471206120E01E00270401C491E5F
:1021B000FBD270470022F5E710B5040008001100BB
:1021C00002002000FFF7EEFF200010BD001D0321DC
:1021D000401E037812021A43491EF9D510007047B9
:1021E000030003220870491C000A521EFAD5180089
:1021F0007047F0B506001FB4002082B005004024EF
:10220000019100901BE0019922000F00300000F0C6
:1022100041F8049A059B801A994110D310001900C7
:10222000220000F027F8361A8F410197009F220004
:102230000120002100F01EF838184D4100902000C8
:10224000641E0028DFDC019B00982900320007B0E3
:10225000F0BD0000054C064D03E020000FC8984774
:102260001034AC42F9D3FDF718EF00005C86000093
:102270007C860000202A10B504DB0100203A914042
:10228000002010BD914020239C1A0300E340194315
:10229000904010BD202A10B504DB0800203AD04041
:1022A000002110BD0B00D340D0402024A21A914041
:1022B0000843190010BD000002C081E010402DE964
:1022C0000120D0E40F3012E20130D0042222B0E12C
:1022D0000120D004010000EA0140D0E40140C1E443
:1022E000013053E2FBFFFF1A012052E20130C1141A
:1022F000FCFFFF1A0C0051E10000A023EFFFFF3AA2
:102300001080BDE810B5064CA06840084000A060F1
:1023100001F07AFAA06801210843A06010BD000016
:1023200080604000034904220862C86A1043C86202
:1023300070470000A48B810030B5184B164CDB7839
:1023400000220EE03C2555432D192D6B854205D109
:10235000002803D0002915D00A7013E0521C120681
:10236000120E9A42EED3002211E03C2555432D195E
:102370006D6B854208D1002806D0002902D080204C
:102380000243E9E7012030BD521C1206120E9A42A8
:10239000EBD3002030BD0000142B81001800810019
:1023A00070B50B4D0B4E00240EE03C2060434019ED
:1023B000016A052905D18169002902D0042100F0B4
:1023C0002DFB641C2406240EF0788442EDD370BDEE
:1023D000142B810018008100F0B52748816B826BB7
:1023E000022192000400803CA15024490968096937
:1023F000826B92001219D163816B214A126851439A
:10240000204A8918826B920012199167816B491CCE
:102410008163826B1C490B789A4201D3002181634E
:10242000816B89006758194D134A2968876B01260B
:102430004032BF00E6514C69E4684C614F690024AA
:10244000BC604969846B0E4F3F687C430D4FBF1ED3
:10245000E4198F683C438C602C68F1076469216043
:102460001660C16B491CC163C16B5A009A18914236
:1024700000D9C363F0BD0000EC928100D40081005C
:10248000E88B8100A201810018008100D800810042
:10249000064902680A6042684A6082688A60C268C7
:1024A000CA6000690861002070470000E88B810065
:1024B00010B5002001F032FD10BD000000B500F0A5
:1024C000B7F8024A0021D16200BD0000A48B810050
:1024D0000248008C0006000E70470000A48B8100AB
:1024E0000649C978884201D3002070473C21414306
:1024F000034A0023505C53507047000018008100CD
:10250000142B810006207047F8B5040014200078D1
:102510001E0015000F00422803D0552801D0F920D5
:10252000F8BD33484421FFF745FE32481821FFF734
:1025300041FE2F4804222100FFF722FE2C4C0422EA
:102540003900201DFFF71CFE2000062231000C3050
:10255000FFF716FE002D2CD02000042229000830A1
:10256000FFF70EFE244D322268680126C106C90E0F
:10257000E970C105090F2970C104090F6970810450
:10258000C90FA9704103C90EA1610102C90E5143CF
:10259000E161C101C90F002902D0216C31432164DE
:1025A0008001C00F03D0206C022108432064002763
:1025B0000CE0FF206072A07200202072D2E7390088
:1025C000002000F04FFA7F1C3F063F0EE87887425C
:1025D000F5D300F0A3FA00F00FFC05480749583086
:1025E0006662016006494160092181600020F8BDF2
:1025F000A48B8100108C810018008100204E000007
:10260000983A0000084810B5808CC0070AD000F046
:10261000D7FB00F099FB054801F090FB00F0D6FADB
:10262000FFF7BEFE10BD0000A48B8100288C810046
:1026300010B50E4A0B4C0C49D37800200CE03C221C
:1026400042438A58002A04D0E06A10210843E0621D
:1026500004E0401C0006000E9842F0D3A08D000656
:10266000000E10BDA48B8100142B81001800810086
:10267000FEB50C0001000020050008705E485D4FAB
:10268000C07808E03C226A43D219126A002A04D0BA
:102690006D1C2D062D0E8542F4D3854201D32020DA
:1026A000FEBD0D70E069002805D0022820D0032867
:1026B0006ED02120FEBD208D0006000E03F09EF995
:1026C00006007BD04D48694600680090300003F05A
:1026D00045F9E06A69460090300003F04BF93C2070
:1026E00068434749C219300003F09EF9266344E06D
:1026F00005F064FE0028019079D0E06A00900F2078
:10270000000702F052FF0600009907200E40400724
:1027100002F04BFF864205D03A49684601F098FE28
:10272000002807D0208D384902040198120C05F0CA
:10273000A5FC14E03148694600680090208D020431
:102740000198120C05F09AFC00280AD1E06A69464B
:102750000090A08C02040198120C05F0DFFC002808
:1027600002D000F09FF9FEBD3C2068432749C21902
:10277000019805F030FE0198206305202062214871
:10278000694601F045FA2900200000F06BF92CE0C1
:1027900004F080F806002AD01848694600680090C6
:1027A000208D0204120C300003F0B8FA00280190CA
:1027B00005D0300003F03AFB0198D2E717E03C2047
:1027C0006843C119300003F0A7FA1149300003F043
:1027D0008BFD26630520666320622900200000F03F
:1027E00041F90848694601F013FA0020FEBD1120A6
:1027F000FEBD0000142B810018008100A48B810015
:102800008D2E0000288C8100E18500001131000030
:10281000952A0000F7B582B0049900220D680A607D
:102820003C21484361494718386A052802D01720DF
:1028300005B0F0BD002D18D0BE68F968701E0818EC
:10284000B9697C69A94200D20D00039900297DD0A5
:102850006119814200910AD2042D08D903982A00F7
:102860002100FFF78DFC009C85E01A20E0E750492D
:10287000097C890729D5001B401CA842009000D381
:1028800000950098042805D9020003982100FFF75D
:1028900077FC05E002040398120C210000F048FACE
:1028A00000990398340040188D4264D96E1A042EA2
:1028B00004D932002100FFF763FC04E03204120C5B
:1028C000210000F035FAA41955E0002140E02378FA
:1028D000039A641C1370039A521C844200D934007A
:1028E000491CA94247D22378641C1370521C8442AD
:1028F00000D93400491CA9423DD22378641C1370CE
:10290000521C844200D93400491CA94233D2237896
:10291000641C1370521C844200D93400491CA94223
:1029200029D22378641C1370521C844200D93400CD
:10293000491CA9421FD22378641C1370521C844284
:10294000039200D93400491CA94200E003E012D2EE
:10295000A942BCD30FE06119814203D2042D01D9F1
:102960000C0008E0002104E0641C844200D934001B
:10297000491CA942F8D3049805607C61B869411BE1
:10298000B96102D1B86878613861F86903280AD161
:10299000BA89386B511A0904090C4185FA688A42D0
:1029A00001D104F0EDFF002042E70000142B81006C
:1029B000E88B81003C225043034A8018002901D053
:1029C00042690A6080697047142B81003C2310B56E
:1029D00043430D4C1B191C6A052C03D000201060CA
:1029E000172010BDDB69002B05D0022B06D0032B6E
:1029F00007D0FA2010BD00F0A3FA10BD00F0E8FBEC
:102A000010BD00F005FB10BD142B810002490A68BF
:102A100010180860704700008400810070B50478C9
:102A20000500082913D007DC01290BD002290BD09F
:102A3000042916D1042008E010290AD0402910D119
:102A4000402002E0012000E00220044308E00820CA
:102A5000FBE710200443686B002801D003F0E6F97F
:102A60002C6070BD70B505003C20414308480C182F
:102A70003C212000FFF79EFB002D04D020003C22CB
:102A80002900FFF77DFBA0682061606170BD000038
:102A9000142B81007047000001488068006A70476D
:102AA000D0008100002806D0FF210131081A024918
:102AB0000006000E085C7047B685000070B5012066
:102AC00002F006FF400701D4012070BD104DA86838
:102AD000006A88300468002002F0FAFE0D4A0E49B0
:102AE000C30508D51443800402D50C4308200AE02E
:102AF0008C43022007E09443800402D50C4310204D
:102B000001E08C430420A968096A88310C6070BD1B
:102B1000D00081000080000000000400F8B52749C3
:102B200001220A62086CC307254804D0C37B5B06F8
:102B30005B0EC37303E0C37A5B065B0EC372FFF7E1
:102B4000ABFF57260124A4052670A8272770607BB9
:102B50004006400E6073002525701948403001681A
:102B6000C20211430160207F842108432077267030
:102B70002770A07B4006400EA07325703220FEF720
:102B800072EF207F4006400E2077C820FEF76AEFE4
:102B900026702770607B4006400E607325700948E0
:102BA00005600948816804221143816081684907F2
:102BB000FCD4024901200862F8BD0000A48B81000A
:102BC00040004000D000810080604000F8B52C4CEF
:102BD000606800902B48016A012950D00099A268D2
:102BE000C069891A4008814203D30098A06005F0AB
:102BF0009FF9009821697D25401AED00A84203D372
:102C000002F0C0F8009820610098E168401A1E495F
:102C1000884203D30098E06001F028F81B48C1689F
:102C2000002908D00099226A891AA94203D3009981
:102C3000216240688047164EFF253068F535002830
:102C400016D000986169401AA84205D300986061C7
:102C50003069002800D080470098A169401A0D49CA
:102C6000884205D30098A0617069002800D0804791
:102C70000098E169401AA84201D90098E061F8BDC6
:102C800080008100A48B810088130000BC93810028
:102C9000108C810060EA000001490120C863704780
:102CA000A48B8100F8B50500002668460670280050
:102CB0006946FFF741FB00280BD0684600781349AE
:102CC000020607D54006400E3C225043401846639A
:102CD0000662F8BD3C22424354180D49C978884227
:102CE000F7D2E0690328F4D12D7C20003C21FFF7C6
:102CF00061FA092D08D00A2D06D040212000FFF7E7
:102D00008DFE26632662F8BD1021F7E7142B8100A3
:102D10001800810010B5054C23636263A1636061F4
:102D2000E06A01210843E06210BD0000A48B81002D
:102D300003E00B78491C0370401C1300521E120460
:102D4000120C002BF5D17047154810B50168002909
:102D500021D1010040398A6B93000200C03AD35858
:102D6000002B01D0002010BD8C6B0123A400135157
:102D7000896B0C4A126851430B4A8A180B4909683F
:102D80004C69A2604969DA070A6009498A68022425
:102D900022438A60036000680006000E10BD000038
:102DA0002C938100E88B8100A0018100D800810074
:102DB0008060400001488078704700001800810062
:102DC000F8B50C4F0025BC6911E02000FFF76AFF41
:102DD000200004F009F8E068002D01D0E86000E070
:102DE000B861E6682100022002F002FB3400002CEA
:102DF000EBD1F8BD3000810030B5002587B01C480C
:102E00001C4C03950495059560620C38A062001D6A
:102E1000E062001D206302F085F9A16A042203A884
:102E2000FFF7AEF9216B042204A8FFF7A9F9E16AC4
:102E3000042205A8FFF7A4F90F48616A0622FFF7EC
:102E40009FF90E4805600E4805600B48273802F0D0
:102E50004BFB0C480C49029007480191273805AB01
:102E600004AA03A9009502F007FB07B030BD0000DB
:102E7000B08B8100800081004F8C81002800810090
:102E80002C008100B93C0000153D0000FFB504692D
:102E9000C1680500601E0F1881B0039800264068C5
:102EA000417802780802104302F083FB0005000F0E
:102EB00080004142039802F0A4FC002802D00020C8
:102EC00005B0F0BD0398002837D0002C0DD0E8687D
:102ED00000280AD003994A89486893191E04360CC1
:102EE0001219BA4213D900220DE0039802F066FCD1
:102EF00023E00378401C2370641CBC4200D9AC68FA
:102F0000521C1204120C4B899342F2D80BE000229F
:102F100006E00378401C2370641C521C1204120C3F
:102F20004B899342F5D809680029D4D1039802F05F
:102F300045FCA8692C618019A8610120C0E7000048
:102F4000F7B584B00699069A0D683C2148432E498E
:102F5000002640181660002D019031D005980028F9
:102F60002ED00198006B02902848006C800700D496
:102F7000C726761C3604360CC82E40D8B924E40087
:102F8000A54200D82C0021040022090C100002F0F8
:102F900015FB070035D0786805992200FFF7F0F897
:102FA0001A490020C8630298390002F040FD0090E1
:102FB000380002F003FC1548C06B002806D102E07F
:102FC0001A2007B0F0BD009800280EDA06990020FC
:102FD000086001984021FFF721FD0098002802DADF
:102FE000FFF760FDEDE7FA20EBE7069800680119AE
:102FF00006980160059800192D1B0590B9D1002095
:10300000DFE71120DDE70000142B8100A48B810095
:10301000F7B582B0049900260D683700002D0E60C8
:1030200017D00399002914D03C2148433649401851
:10303000006B00903548006C800700D4C7277F1CC8
:103040003F043F0CC82F07D90498006800284DD1D1
:1030500053E01A2005B0F0BD0098007C042801D090
:103060001720F7E72948006C800701D5FFF7CAFA57
:1030700000986030C489002C06D0244E4436307C41
:10308000C00703D1A54201D91120E3E7A54200D82A
:103090002C007068A04200D20400009803F092FC5B
:1030A0001A484430007CC00703D02204120C0123CC
:1030B00002E02204120C00230399009804F064FF3C
:1030C000060005D0701C00981BD003F07BFC14E0B8
:1030D000009803F077FC0600049800680119049832
:1030E0000160039800192D1B039001D10020B1E766
:1030F00006484430007CC007A1D13000FFF7D2FC65
:10310000A8E703F05FFCF3E7142B8100A48B810098
:10311000FFB504690500C068611E4718A96B002649
:10312000002981B0944602D0AC68611E4718110096
:1031300006D0002C01D0002804D1080002F03EFB8C
:1031400005B0F0BD4B8948689A191604360C1A1957
:10315000BA420FD9002309E00278401C2270641C97
:10316000BC4200D9AC685B1C1B041B0C4A899A4208
:10317000F2D80BE0002306E00278401C2270641CA9
:103180005B1C1B041B0C4A899A42F5D8096800296C
:10319000D8D101200003864200D90600604602F023
:1031A0000DFBAF6B002F0DD00498FFF70FF80096C2
:1031B0000100AB680A9A2800B8470020A861A868F7
:1031C0002861BDE7A8692C618019A861B8E70000F3
:1031D000F7B582B00499049A0D680026002D166098
:1031E00034D00399002931D03C2148432749401865
:1031F000006B01902648006C800700D4C726761C1F
:103200003604360CC82E3CD81724A401A54200D29F
:103210002C0021040022090C100002F0CFF9070055
:1032200031D0786803992200FEF7AAFF18490020E0
:10323000C8630198390005F0D1F80090380002F019
:10324000BDFA1348C06B002806D102E01A2005B071
:10325000F0BD009800280ADA049900200860009860
:10326000002802DAFFF71EFCF1E7FA20EFE70498E6
:103270000068011904980160039800192D1B039040
:10328000BDD10020E3E71120E1E70000142B81000D
:10329000A48B81000FB410B5044B054A029803A912
:1032A00000F030F810BC08BC04B018476C070000F0
:1032B0002C01810001C05EE50C0053E10C30DE27DB
:1032C0000330DE3783C08EE01CFF2FE1020000EAEE
:1032D000043090E4042042E2043081E4000052E330
:1032E000FAFFFF1A1EFF2FE11EFF2FE10000A0E3EF
:1032F000000052E30420421204008114FBFFFF1A75
:103300001EFF2FE1FFB591B005000F000026F2E08F
:10331000252876D10024FD496D1C012300940294D8
:103320002A781800203A904002000A4202D0044352
:103330006D1CF5E728782A280ED002222878010093
:103340003039092915D800990A23594314433039D3
:1033500040186D1C0090F1E701CF0090002805DABD
:10336000012040030443009840420090022004439F
:103370006D1C28782E2815D1042004436D1C287854
:103380002A280AD101CF6D1C02900BE002990A2273
:103390005143303940186D1C0290287801003039B3
:1033A0000929F3D928786C2810D006DC4C281AD0CB
:1033B00068280ED06A2817D104E0742813D07A2820
:1033C00012D110E00120400504430CE00121090561
:1033D00001E0032109050C436978814203D10120F2
:1033E0006D1C000524186D1C28786E2886461FD099
:1033F0000DDC632833D005DC00287ED0582812D19C
:10340000BCE010E0642801D069280CD17FE073286B
:103410002ED004DC6F2871D0702804D1B0E075285C
:103420006DD078286CD0149A13999047761C61E07F
:103430006002400F022807D003280AD00428386809
:103440000AD03F1D066055E001CFF11706604160CC
:1034500050E001CF06804DE03F1D06704AE001CFED
:10346000694608740020487404A80390012003E012
:1034700001CF03900020C04361070FD5002101E078
:103480000199491C029A0191914213DA8142F7DBBA
:10349000019A0399895C0029F2D10BE0002101E037
:1034A0000199491C81420191FADB019A0399895CD7
:1034B0000029F5D101990098139A401A0090149BA5
:1034C000210000F049F901998019461807E0039896
:1034D00003990078491C149A039113999047019815
:1034E000401E0190F3D2149B139A0098210000F023
:1034F00023F986196D1C287803E005E049E03BE0DC
:103500003CE0002800D003E7300015B0F0BD0A20F1
:103510000021049060020591410F022905D001CFDE
:10352000C2170329944607D00AE0FF1DFF08FF00D9
:1035300079683868083708E000040014C217944618
:10354000042903D100060016C1178C4600218C45C2
:10355000624604DA404291418C462D2102E0210569
:1035600004D52B216A461176012103E0E10701D041
:103570002021F7E7019155E00A200BE0102009E037
:10358000102004900021042004430820059102909B
:1035900003E008200021059104906002410F0229F8
:1035A00005D0002201CF0329944607D00AE0FF1D71
:1035B000FF08FF0079683868083708E00004000C4D
:1035C00000229446042903D10006000E00218C46F7
:1035D00000210191210725D5714670292BD0049A2D
:1035E000059B10214A401A4309D16146014306D088
:1035F00030216A4611767146517602210191049A72
:10360000059B08214A401A430CD16146014301D170
:10361000610707D530216A4611760121019102998F
:10362000491E02917246582A39A100D03DA103914A
:103630000FA90F9110E040216A4611760121DDE7C4
:10364000059B049A6146FEF7D4FD039B8C469B5C68
:103650000F9A521E0F92137061460143F0D10F98DA
:1036600007A9081A20300390600703D50120000441
:10367000844301E001200290039A029900209142C4
:1036800000DD881A81180290019809180098401AE4
:103690000090E00306D4149B139A0098210000F0D8
:1036A0005BF88619002008E0049906A8405C149A8B
:1036B000139990470498761C401C01990490884205
:1036C000F2DBE0030CD5149B139A0098210000F064
:1036D00043F8861904E0149A139930209047761C19
:1036E0000299481E00290290F5DC08E00F980F9916
:1036F0000078491C0F91149A13999047761C0399EE
:10370000481E00290390F1DCEDE6000009280100C5
:103710003031323334353637383941424344454607
:1037200000000000303132333435363738396162C9
:103730006364656600000000F8B5040017001E0011
:103740000025880404D405E039002020B0476D1C12
:10375000641EF9D52800F8BDFFB581B004001E0035
:1037600000253027C80300D42027880404D505E0AD
:1037700003993800B0476D1C641EF9D5280005B0C8
:10378000F0BD000070B51D481D4C0168A0680161C6
:10379000016941610269C1690901103951188161EA
:1037A000C16900690901FEF705FDA0688069012172
:1037B0004268C9070A434260A068006902680A4378
:1037C000104902600D68A168002210E04368CC6ACD
:1037D0006405640D234343608368CC6A54436419D1
:1037E0002343836003001033C3601800521CCB696D
:1037F0009342EBD808698969C86070BDC000810038
:10380000D0008100BC00810010B51448144C016840
:10381000A0680160016841600268C168090110394F
:1038200051188160C16800680901FEF7C3FCA068F7
:10383000806801224168D20711434160A36818687B
:10384000002104E002001032C2601000491CDA6856
:103850008A42F7D818689968C86010BDB80081001E
:10386000D0008100F7B5060084B07DD0069840896D
:103870002B287AD30698456801202C000F3400F0DD
:1038800030FC617822780902114388426DD14348A7
:1038900000F027FC01006079227900021043814288
:1038A00076D10120C00200F01CFC0100E078A27873
:1038B0000002104381426BD1394800F012FCAA7B10
:1038C0006B7B010010021843814261D121000E314F
:1038D000042202A80091FEF753FC210018310422B3
:1038E00003A80191FEF74CFC7068002804D00399EE
:1038F000814203D1012702E0002704E00027002FC6
:1039000001D0012300E0002322000832300002A988
:1039100004F0F4FDE079A1790002084300F0E1FB36
:10392000012802D0022833D128E0002F30D0022015
:1039300000F0D7FBA071000AE07100990198042201
:10394000FEF71EFC00980422311DFEF719FC06212B
:10395000491E0906090E6018027A6B1882745A70A3
:10396000059A525C027201E015E011E00598002909
:10397000405CD871ECD1B269069907E0094801684A
:10398000002905D0C268002A02D002A93000904761
:10399000069801F013FF07B0F0BD00000406000018
:1039A00006080000108C810070B5050012D04C682C
:1039B00020001B300600FEF709FC0100A8686A68B9
:1039C00001400240914205D10023E21D3100280050
:1039D00004F094FD70BD0000FEB50D00040016005B
:1039E0000F21280001F00DFF002802D00120C04364
:1039F000FEBD2100300000F02BFD002801D0284B37
:103A00002EE03000FEF7E2FB07000F20000701F078
:103A1000CCFD07400720400701F0C7FD874226D1B3
:103A2000012069460870002048705E2088703000D0
:103A3000FEF7CCFB01F0B9FD4002400E6946C870AC
:103A40003000FEF7C3FB01F0B0FD000A69460871C3
:103A50003000FEF7BBFB01F0A8FD69466B464871DC
:103A6000220027322900200000F0E4F8FEBD3000DB
:103A7000FEF7ACFB0100A068626801400240914281
:103A800004D0E068002807D026000C362A00310058
:103A9000200000F007F8FEBD0320C043FEBD00007B
:103AA000E5850000F7B582B002980E00273001903E
:103AB0000020C043009002991400300000F0C8FCC0
:103AC000002827D13000FEF781FB05000F200007FA
:103AD00001F06BFD05400720400701F066FD8542BF
:103AE00018D0002E16D03000FEF770FB002811D041
:103AF0000121300000F078F900280DDB144F05019A
:103B000078682818817A002908D0012908D0002C6B
:103B100006D00EE00920C04305B0F0BD012181723E
:103B2000FFF7BAF80298310000F072F8002C00900C
:103B30000BD078682B18987A022806D1019A02983F
:103B40001B1D210000F076F800900098E4E70000CB
:103B5000C4008100FFB51F0000222B21032081B08B
:103B600001F02CFD06004BD075680D982C000F3429
:103B700000F0B7FAA071000AE0710620401E0006AE
:103B8000000E3A5C21180A720B9A125C8A7403992F
:103B90000A5C291800284A70029A125CCA71EDD199
:103BA00020000A9904220E30FEF7EAFA20000C9950
:103BB00004221830FEF7E4FA012000F092FA207097
:103BC000000A60700120C00200F08BFAA070000AA9
:103BD000E0700D4800F085FA2071000A60710B4812
:103BE00000F07FFA6873000AA873019831008269B7
:103BF00090470400300001F0E1FD200005B0F0BD69
:103C00000020C043FAE70000040600000608000098
:103C10001FB50123064C0393021D030027330092B6
:103C200002911900A21F0194FFF794FF04B010BD88
:103C3000EB850000F8B54D680E0007000624641EF1
:103C40002406240E195D2819002C4170115DC171E4
:103C5000F5D10120C00200F044FA6873000AA8738D
:103C6000BA69310038009047F8BD000030B51049FE
:103C7000104D4C68002016E001010919CA7A521C47
:103C80001206120ECA728B7A022B02D0012B03D0BD
:103C900006E0F02A02D203E0022A01D300228A724F
:103CA000401C0006000EE9688142E5D830BD0000E6
:103CB000C4008100E88B810070B5040040680D00ED
:103CC000817B427B0802104300F00BFA0121C902FC
:103CD000401A02D006280BD113E021002800FFF77C
:103CE00063FE0E21C943200001F08BFD002803D0A4
:103CF000200001F063FD0AE02900200000F076FCBE
:103D000005E02900220027312800FFF7ABFD002045
:103D100070BD000010B5C1610100652220318A73B9
:103D20006E22CA73034941610349816101F072F84F
:103D3000002010BDD93900007150000070B527492E
:103D40000500C86B002848D02548026C2548D307D9
:103D50000CD0C37B5B065B0EC373C37B5B065B0E41
:103D6000C373C37B5B065B0EC3730BE0C37A5B0656
:103D70005B0EC372C37A5B065B0EC372C37A5B06CB
:103D80005B0EC372C96BD3070906090E8022002B94
:103D900003D0C37B1343C37302E0C37A1343C372DC
:103DA00000291AD0280001F095F8040015D06068A9
:103DB000817B427B0802104300F093F90121C90284
:103DC000401A01D0062805D12A6929002000904711
:103DD000002802D0200001F0F1FC70BDEC928100BF
:103DE000A48B810040004000F3B5454887B0C66809
:103DF000002437063F16434900970798039401971C
:103E000005944D68002850D0080000780490000107
:103E100002904019807A022847D10798FEF7D6F918
:103E200002996958884240D10498000665E0BE4274
:103E300004D120014019807A002809D02001049083
:103E400040190290807A012805D0022818D029E074
:103E500027063F1626E00798002807D0FEF7B6F998
:103E600004996958884201D1264844E00298039990
:103E7000C07A884216D3210609160091039011E0FA
:103E80000798002805D0FEF7A1F9049969588842DF
:103E9000EAD002980599C07A884203D32106091610
:103EA00001910590641C2406240EA642BFD8002070
:103EB000C043BE4202D10899C9071FD0089989079B
:103EC0001CD4BE4202D93C06240E07E001998E4262
:103ED00002D800998E4211D90C06240E260100202A
:103EE0007719B8720798002802D0FEF76FF9A85129
:103EF00004480021F97204702006001609B0F0BDD4
:103F0000E88B8100C4008100034904208968096AA4
:103F10008831086070470000D000810070B50B4DFB
:103F2000A868006A0468E00701D001F0CFFDE00650
:103F300005D5A8684168C968416000202860A005CF
:103F400003D5FEF7BBFDFEF7EDF970BDD000810093
:103F50001CB501210903019004480091026804493D
:103F60000448012300F008F81CBD0000E88B810024
:103F70009083000023410000FFB5364C1D006068AF
:103F800017000E00002881B062D0A06800285FD022
:103F9000006A042188300160FFF736FCA068C76220
:103FA000FFF7F0FB0B99A06881620168006A01626B
:103FB000A0680169006A4162A0682749006A274B2E
:103FC000416018688278417912068918C2780079B0
:103FD0001204000210180818A168096AC86018685D
:103FE0000178407809020818A1680004096A000CE9
:103FF0008860A0680A99006A8162A068006AC56248
:10400000A068006A0663012001F062FC002001F054
:104010005FFCA268116A124B88310968C50501D599
:10402000194300E0994383040E4801D5014300E0A1
:104030008143106A88300160A068016A019A883162
:104040000968006A1143012252041143883001605B
:1040500005B0F0BDD0008100B3030000A4008100D2
:10406000008000000000040070B5164C0D00060032
:10407000A06840680068002801DAFEF743F9A168EB
:104080004868866048684168C90FC9074160A068F0
:1040900040686A050B234168520DDB061A43114341
:1040A0004160A168180149680860A068016A898DAB
:1040B0000905090F02D1006A491E816101202060B3
:1040C00070BD0000D0008100FF22120203001340E7
:1040D00001061B021943030A13401943000E08434B
:1040E00070470106090C000A084370470A0010B522
:1040F000032100F0F7F810BDF3B5446805006078BF
:10410000217887B00002084301F053FA0005000F40
:104110008000414200902800029101F072FB0028CB
:1041200025D12889042822D36E683078032802D04C
:104130000828F5D11CE0307A310008310090707CFD
:10414000327C0F0000021043040A0422103105A83B
:10415000FEF716F8009873780007800E38188178FB
:10416000C0782200090201430598FEF7D3FDB2E0B2
:104170002000103001260190FEF728F807000F20DC
:10418000000701F012FA07400720400701F00DFA7E
:10419000874200D100260899019800F059F90028BB
:1041A00000D00026FEF706FE00287DD0002E7BD032
:1041B0002889082878D3280000F0D6F8002873D181
:1041C0002221280001F01DFB00281DD000992800A5
:1041D00001F017FB00287ED129890022022001F07E
:1041E000EDF9060077D0290001F09AFA002872D183
:1041F00074680299300001F004FB00286BD128009C
:1042000001F0DCFA350006E02121C943280001F065
:10421000F8FA00285FD120006E680C3003900490FB
:10422000FDF7D4FF07000590200010300190FDF746
:10423000CDFF0499FDF7D4FF01993800FDF7D0FFB9
:10424000002727483770FFF74CFF0100F078B2785D
:10425000000210430122D202814204D81000FFF76D
:1042600040FF401C02E01000FFF73BFFF178B278FE
:10427000090211434018B070000AF070607A217A88
:104280000002084301F095F900060121000EC90360
:104290004018FFF726FF2072000A6072380AA772E2
:1042A0001421E072200000E015E000F056F8A07242
:1042B000000AE0720099280001F0A3FA00280AD150
:1042C000089801210191029003998023002228007F
:1042D000009700F0D7FA280001F070FA09B0F0BD9D
:1042E000FFF70000F7B50E0000222421012082B064
:1042F00001F064F9050028D002986C6847682670C0
:1043000004980026607026716671A671E6710298A5
:104310001C22416868680830FDF732FF300AA67039
:10432000E0706989200000F018F8A070000AE070C1
:1043300001203A00019080230C32002128000096D1
:1043400000F086FA280001F039FA05B0F0BD0A0045
:1043500010B50B21FFF7C6FF10BD10B500F0F0FE41
:10436000C0430004000C10BDF8B500240500260071
:10437000012715E06989686800F0E2FE0019010C68
:104380000004000C0C18A87AC00708D0B81B060659
:104390002006000C2104360E090E04000C432D6883
:1043A000002DE7D1002E05D02006000C2104090EB7
:1043B00004000C43E0430004000CF8BDFFB50024EA
:1043C00005002600012781B015E06989686800F0C2
:1043D000B7FE0019010C0004000C0C18A87AC007E5
:1043E00008D0B81B06062006000C2104360E090E64
:1043F00004000C432D68002DE7D1002E05D02006C7
:10440000000C2104090E04000C430298FDF7DEFEA7
:104410000104090C0919000C44180398FDF7D6FE95
:104420000104090C0919000C44180498FFF759FEFF
:1044300004190A98FFF755FE0019010C0004000C3E
:104440000818010C0818C0430004000C05B0F0BDAA
:1044500010B50C00FDF7BAFE0200411C13D0002A73
:1044600011D02D21095D89070BD56168914208D0D3
:10447000A0681300034001408B4202D11043401C4E
:1044800001D0002010BD012010BDF7B504008AB096
:104490000B981425808C0026009060680690C179E6
:1044A00082790802104301F084F8C104C90C01911B
:1044B0000121490308400790208914380704009817
:1044C0003F0C1438C117490F089008184003000C1E
:1044D000029082E00898874201DC012000E0002081
:1044E0000199079AC904C90C1143002804911BD0F3
:1044F00038000004000C059000221421022001F075
:104500005DF80028009017D0406806991422FDF746
:1045100037FE0098406803906068401960606089C9
:10452000401B6081059D26E00800012149030843E6
:1045300004900298C000DCE70020C0430DB0F0BD3D
:104540006689AE4200D92E00002E13D0022200212F
:10455000032001F033F8010044D0606848600E8108
:104560004E81009801F0B6F8A81B05042D0C04D06C
:104570002468E5E72468002DE2D104983500FFF7B0
:10458000B0FD03998871000AC871059814300004C1
:10459000000CFFF7A6FD03998870000AC870039805
:1045A00000218172C17203981421FFF7D6FE03998E
:1045B0008872000AC8720B980C9A43690099984750
:1045C000009801F0FBF805980299381A0704019841
:1045D0003F0C40180004000C0190002F00D079E738
:1045E0000020ABE7009801F0E9F8A5E7F3B501205A
:1045F00085B0039005980E00456868782978000218
:10460000084300F0D6FF000B042803D0059801F002
:10461000D5F812E1687829780002084300F0C9FF54
:104620000005000F80000090E878A9780002084398
:1046300000F0BFFF04000598418900988142E5D34E
:1046400005980089A042E1D300992800FFF785FE74
:104650000028DBD10598210001F008F90120029023
:104660002800103001900F203400000700F09DFF5B
:104670000720400700F099FF200000F021FF0028EC
:104680001ED0201D1CD06768002F19D00198FDF79F
:104690009DFDB84223D001982100FFF7D9FE0028E4
:1046A0001DD10198FDF792FD07000F20000700F0D3
:1046B0007CFF07400720400700F077FF87420ED0BD
:1046C0000298002804D0002002905D48046800E0B1
:1046D0002468B44200D12468002CCDD101E0002C24
:1046E0002FD1687A297A0002084300F062FF0006A1
:1046F000000E11280ED100982818C178827808027F
:10470000104300F056FF442804D100203400002E4E
:10471000039016D1687A297A0002084300F049FF15
:104720000006000E11280CD100982818C178827854
:104730000802104300F03DFF4249884201D1340095
:104740001FE0039800281CD028000C300700FDF75C
:104750003DFD002815D031003800FFF779FE002814
:1047600000D053E73800FDF731FD07000F200007A8
:1047700000F01BFF07400720400700F016FF8742AC
:10478000EFD0002CEDD03048FFF7ABFCE979AA79E7
:1047900009021143084206D0059800F0FBF80028F2
:1047A00005904BD04568294C31006660A56005989E
:1047B00001F0ECF800283DD1687A297A000208431C
:1047C00000F0F7FE0006000E012816D006280FD0D4
:1047D000112808D02800310010300600FFF738FEFD
:1047E00000280FD023E00598310003F0DBFC21E026
:1047F0000598310001F0B0FD1CE005983100FFF78D
:104800007BFC17E03000FDF7E1FC06000F200007FD
:1048100000F0CBFE06400720400700F0C6FE8642AF
:1048200005D00598022145600598FFF75FFC0598C3
:1048300000F0C4FF00206060A060002007B0F0BD61
:10484000280081006C070000FF3F00001801810074
:10485000FFB583B00C9D0D9C1F001600100000F0EA
:10486000AFFA00280AD00290049903983B00320066
:104870000095019400F006F807B0F0BD0320C04396
:10488000FAE70000FFB5060081B003980C9D1F00F9
:10489000002867D0142001000090300000F0B1FF24
:1048A000002803D00120C04305B0F0BD7468607AD1
:1048B000217A0002084300F07CFE0006000E390257
:1048C0000843FFF70EFC010A2072617200F071FECE
:1048D0000B99000A00020843FFF703FC2072000A4C
:1048E00060720398FDF772FC21001031FDF778FC2F
:1048F0000A990520000208430121890308430004A6
:10490000000CFFF7EEFB2070000A60703089FFF7A3
:10491000E8FBA070000AE07000201D4FA071E0715C
:104920003888FFF7DEFB2071000A60713888401C70
:1049300038800298002803D0FDF748FC002802D1F7
:10494000281D00D0686821000C31FDF749FC0020CB
:10495000A072E07200992000FFF7FFFCA072000A2D
:10496000E07202E0706810300390A88C002808D034
:104970003189814205D9039A29003000FFF785FD6E
:1049800092E76B693100039A280098478CE7000092
:1049900018018100F1B584B0049800264568687854
:1049A00029780002084300F004FE0005000F0528E6
:1049B0007ED1E879A9790002084300F0FAFDC0042D
:1049C000000C0090E878A9780002084300F0F1FD9F
:1049D0000400687829780002084300F0EAFD000529
:1049E000000F8000201A0004000C0190049800F0D1
:1049F0008DFE5D4A07005B48127C01885206C9198A
:104A0000120F914254D8446828000C300390001DC6
:104A1000029014E00398FDF7D9FB616988420CD13C
:104A20000298FDF7D3FBA169884206D168792A79FB
:104A3000A18900021043814204D026002468002C82
:104A4000E8D10AE0002C08D0E879A97900020843EF
:104A500000F0AFFDC00417D021E0052000F0FEFCFF
:104A600004000ED02021FDF7A5FB0320E0773D4890
:104A70001422416821604460200029000830FDF7BD
:104A80007FFB002C69D00AE0E08900F092FDC004B1
:104A900005D02000142229000830FDF771FB3148B1
:104AA0000188C9190180E879A9790002084300E06A
:104AB00053E000F07EFD800407D4A07F012108436D
:104AC000A077019900984018A0830499200000F075
:104AD0004DF800283FD0A08B1430A0836068456853
:104AE0002800FDF773FB070021001422083128007D
:104AF000FDF746FBA08BFFF7F4FAA870000AE870F8
:104B00000020A871E871A872E87214212800FFF74C
:104B100024FCA872000AE872606804900DE013217A
:104B20007D68C943380000F06CFE0498390000F03D
:104B3000D1FD2800FDF74AFB0700002FEFD131001F
:104B4000200000F0D1F8049800F0E0FD05490A8843
:104B5000101A0880049805B0F0BD049800F02EFEED
:104B60000020F8E724018100E88B8100F3B583B0D1
:104B70000498002446680127F078B17800020843C1
:104B800000F017FD0500707831780002084300F04E
:104B900010FD0005000F80002D1AF079B179000298
:104BA000084300F006FDC004060C0498416800208C
:104BB0000091FDF715FB0099300A0E7148717019CC
:104BC00000040099000C020A8871CA7102900398CF
:104BD000406801903BE04568687929790002084304
:104BE00086421ED200990198FDF7FAFA002C11D0E6
:104BF000E079A17900020843864266D369792A796F
:104C000002980902114388425FD804982100FDF7F9
:104C1000E7FA02E00499039841600198002818D04F
:104C20002DE0864251D0E979AA79090211438E42DA
:104C30004BD3002C06D0E179A279090211438142BD
:104C400000D000272800FDF7C1FA2C0001900028B1
:104C5000C1D1002C10D004982100FDF7C1FAE079F1
:104C6000A279010200981143427903791002184396
:104C7000814204D0002702E0049903984160039820
:104C8000807FC0071FD0002F1CD003984068406869
:104C900041790279080210430DD1009C20000DE0FB
:104CA000E179A2794068090211434279037912023D
:104CB0001A43914201D0002704E00400FDF786FA70
:104CC0000028EDD1380005B0F0BD049800F01EFDBD
:104CD00004490A88101A0880049800F06FFD00202B
:104CE000F1E7000024018100074A10B554680B0069
:104CF0000168844201D1516000E019600100052083
:104D000000F076FB10BD000024018100F3B545687A
:104D10000600686800244179027981B009021143D4
:104D200013D1FDF753FA310070606868142208311E
:104D3000FDF726FA01212800FFF709FB280000F003
:104D4000E5FC0400280000F039FD75680BE0686898
:104D50002F00FDF73BFA0500380000F0D7FC0419DE
:104D6000380000F02BFD002DF1D102993000FFF743
:104D7000BBFF03490888001B08802000FEBD00001F
:104D80002401810070B50D4800264468350011E00B
:104D90006D1C2D062D0E102D0ED8E07F002804D09E
:104DA000401E2600E077246804E0200024683100DB
:104DB000FFF7ACFF002CEBD170BD00002401810097
:104DC00070B505001148046811E0200000F078FB80
:104DD00000280BD02800FDF7F9F90100A0686268EF
:104DE00001400240914201D1200070BD2468002C96
:104DF000EBD1074C2068002805D000F061FB0028AB
:104E000001D0206870BD002070BD00002800810026
:104E10002C008100F8B50400260006202036234926
:104E2000B07100204A6A135C2218401C2032000630
:104E3000000E0628D371F5D31E4B1D484B63C86383
:104E40001800203888631C481C4A00250864156037
:104E50001B482900007805E08F00BF187D60491CC1
:104E60000906090E8142F7D3002105E08F00BF1823
:104E7000FB60491C0906090E8142F7D30F48C42183
:104E8000C438FDF797F90D480121001F01600D4856
:104E9000A0843320707300F075F90B480068016836
:104EA0000A4888470A480560F8BD00008000810074
:104EB000A0018100808C810030018100309381004D
:104EC00019008100DC050000D4008100D923000016
:104ED000D0008100FEB5614A0026116C3700C8077A
:104EE0005F480CD0C37B5B065B0EC373C37B5B0662
:104EF0005B0EC373C37B5B065B0EC3730BE0C37AAD
:104F00005B065B0EC372C37A5B065B0EC372C37A29
:104F10005B065B0EC372534C606B23008000803BCA
:104F2000C018C06B656B0004000CAD00ED18AD6FD0
:104F30000095656BAD005B591B061B0EC907484900
:104F4000019304D0CA7B80231A43CA7303E0CA7A50
:104F500080231A43CA720199022920D100281ED049
:104F6000401C01040322090C100000F027FB07007D
:104F700071D00021C94300F044FC3D00761C360688
:104F8000360E052E68D86A8968680099FDF7F8F82A
:104F900068890099401800902D68002DEED12F48A7
:104FA000016CC8072E480CD0C27B5206520EC27349
:104FB000C27B5206520EC273C27B5206520EC2739D
:104FC0000BE0C27A5206520EC272C27A5206520EDA
:104FD000C272C27A5206520EC272606B0023820005
:104FE000204880388350606B401C6063626B1E48B1
:104FF0000078824200D36363E26B1C4D002A02D02A
:10500000019A022A0ED02A78521C1206120E8242EF
:105010002A700ED32B70E06B401EE063E06B00281B
:1050200005D006E02B70E06B401EE06301E0A06B52
:105030006063C8070A4804D0C27B80210A43C27358
:1050400003E0C17A80221143C172002F03D00121F5
:10505000380000F0D6FB3800FEBD0000A48B8100B4
:1050600040004000EC928100180081008000810027
:10507000F3B5002581B002982C00691E00F0C1FB39
:105080002348214E214A006A224904E0641C9442CC
:1050900006D8012804D00B68002BF7D1029C0FE042
:1050A000002008600B20C043FEBD67896168E819D5
:1050B00005042D0C3A003000FDF762F82468F6195B
:1050C000002CF2D1144910480B6801229B005B1898
:1050D0005A600A68521C0A600A68104B1B789A4290
:1050E00001D300220A603C2D01D23C2501E0002DB5
:1050F00004D00B4909688A68290090470298012169
:1051000000F07FFB0020FEBD808C8100FFFF0000CF
:10511000A48B8100D00081003093810019008100B0
:10512000D400810010B500F06BF800F06BF9034873
:105130008068002800D0804710BD0000BC9381002B
:1051400010B5002208E003781C024378801C23433A
:10515000D218891E0904090C0129F4D8002902D0AB
:105160000078000212181104100C090C4018010CF0
:1051700003D0010C0004000C08180004000CFEF71A
:10518000B0FF10BD0C480D49020014328A600C4A71
:10519000486002600B4A42600B4A82600022027340
:1051A00002610A4A89680A62094A1278CA600122C1
:1051B000CA6110228A84704744938100D000810024
:1051C000513F0000093F00006940000000604000BE
:1051D0001900810010B500280FD008498A68904254
:1051E0000BD3CA68904208D20838002202710A69BB
:1051F000904200D2086100F087FB10BDDC00810006
:1052000070B5114A114B5068114CC01C80088000C9
:10521000906019890126C91C21400180002141802C
:1052200001719968C91C890889000918D1600E713B
:105230001D89ED1C25400D801B89DB1C23404B8004
:105240001670106170BD0000DC008100E88B8100E9
:10525000FCFF0000F0B500284DD02A49C01C0840D2
:1052600003000C2800D20C23274EB068C01C800815
:105270008000984243D3254C2569A268A91A0904E5
:10528000090CC41A39E050180679002E34D106886A
:10529000761A083E9E422FD304881E001436641AE4
:1052A000083C0127B44216D3CB1808331C04240C45
:1052B000131900261E7106881E805980048007710C
:1052C0001988114B9B68DB1C9B089B00994203D0FB
:1052D000931CCC5200E007710C4BA8420AD1DC6849
:1052E00019690D79002D05D0A14203D009888918CC
:1052F0001961F6E70830F0BD515A8C42C3D800203E
:10530000F0BD0000FCFF0000E88B8100DC008100A4
:10531000F0B5344AC91C11400C2900D20C21324A84
:105320009268D21C920892008A4213D32F4CA36831
:10533000984210D3E26890420DD20200083A1588D4
:10534000D41A2404240C2E1B083E3604360CB44612
:10535000614501D90020F0BD6145FCD0234EED1818
:1053600036692F79B646214EB668B61C002F1CD080
:105370000D0014356545EED8611808310D042D0C6B
:105380001A4F5919714500D2396100230B711388E6
:105390000B804C801580144A09889268D21C9208B0
:1053A00092009142D7D08D53F0BD61182F880831FB
:1053B0000904090CAE45BC4602D10C4D5F182F61A3
:1053C0005B1800251D7165461D805C8011801A8860
:1053D000054B9B68DB1C9B089B009A42E4D09153D1
:1053E000F0BD0000FCFF0000E88B8100DC008100C4
:1053F000002904D0024A800013580B6011507047F6
:1054000088938100F0B50020401C0004000C08289F
:10541000FAD3104E104DB0687268C01C800880002E
:105420000021944600228C004B002A5108E02F599D
:10543000076028513768FF5A3818521C1204120CA2
:105440006746FF5A9742F2D8491C0904090C0829FB
:10545000E8D3F0BDF000810088938100082801D3D3
:1054600000207047034A810050580028F9D0036893
:105470005350704788938100F8B50400089F069840
:10548000002565602600A5602036E56075732562FD
:105490000A4DE06128783074401C28702000276194
:1054A00000F013F8079920008847002801D0002059
:1054B000F8BD6868206020006C60F8BD24008100A1
:1054C0002030407BC007C00F704770B51D0016002C
:1054D000040000F01BF83100200000F05BF8290008
:1054E000200000F007F870BD014988607047000097
:1054F0002400810010B50400002904D00800FCF746
:1055000065FEE06010BD0020FBE70000F8B5050077
:105510000F0000240800FCF759FE6968884229D072
:105520001A48006810E001686A6891420BD1C668A9
:10553000012100F00FFB2100641C24063000240E22
:10554000642901D902E0C0680028ECD11048046841
:105550000EE0002C0BD02068002808D06968884233
:1055600005D1002F0DD03800FCF730FE2060E46834
:10557000002CEED1002F06D03800FCF727FE686023
:10558000F8BD0020F2E70020F9E7000044008100A8
:105590004000810010B50400002904D00800FCF789
:1055A00015FEA06010BD0020FBE700B5FEF78CFDE6
:1055B00000BD00B5FEF795FD00BD0000F8B5170071
:1055C0000D000026002806D0012805D0022804D0AE
:1055D00003287BD102E0142614360E36002F4BD060
:1055E000012F62D0022F60D0032F6FD10720FFF769
:1055F00035FF040069D0002027732060A019133004
:10560000B8436060324825814068F61C3930B108E3
:10561000B8438900401AA84200D928000004000CB1
:105620000121260060812D1AE1811EE00720FFF78D
:1056300015FF00281CD000210773417301602A0464
:105640002349120C30600281496839318908890088
:105650008A4200D229000904090C0200103241815B
:10566000426001226D1A0600C281002DDEDC27E0B7
:10567000200000F0A3F829E0300013308108E81C76
:1056800080088900800008180004000CFFF7E2FD84
:1056900004001AD0A01913308008800060602581B2
:1056A00000206581206020730AE00620FFF7D6FE07
:1056B00004000BD000206060258165812060277385
:1056C0000120E081002060732000F8BD0020F8BDBB
:1056D000E88B810010B500280FD000290DD004E020
:1056E00003890C891B19038110000268002AF7D175
:1056F00002890B89D2180281016010BD10B50C001F
:10570000FFF7E8FF200000F0DCF810BD002103E007
:10571000491C00680906090E0028F9D108007047E5
:10572000F8B500270C0005003E00002805D0002C2D
:1057300003D028892189884202D20920C043F8BDBC
:1057400068896189C01B891B884202DB0804000C40
:1057500001E00004000C00906068009A81196868FC
:10576000C019FCF70DFD00983818070400983F0C8D
:10577000301806046889360CB84201D12D6800271C
:105780006089B04201D824680026002C06D06089C8
:105790002189884202D12068002808D1002D09D033
:1057A00068892989884205D12868002802D0082004
:1057B000C043F8BD002CC3D10020F8BD70B500284F
:1057C00016D00024C189491E0904090CC1810ED1DB
:1057D000017B056803290CD001290DD002290BD0CB
:1057E000FFF7F8FC641C2406240E2800EAD12000F0
:1057F00070BD0100072001E001000620FFF7F8FD61
:10580000F0E710B500290AD0002808D0002908DAEE
:105810004A42130442891B0C9A4225D303E000201C
:1058200010BD0B041B0C027B4468002A06D0032A1F
:1058300004D0022A0AD0012A08D015E0621A030017
:1058400010339A42426008D244600DE000290BDA1E
:1058500042899A4208D3621A4260428952184281B0
:10586000028951180181DAE7012010BD70B5028963
:105870008A4225D98A1A0D00040006E0281A050478
:1058800020892D0C8018208124686089A842F5D3D6
:10589000207B00280BD16089A84208D0A088001B7B
:1058A00040190104090C2000FFF732FD0400658156
:1058B00025812068002801D0FFF780FF00202060AC
:1058C00070BD002802D0C189491CC1817047000009
:1058D0000C4B99688A8CC0068009D206D20A024312
:1058E000012080061218086A903002609868016AE8
:1058F000903109684901FAD4006A903000880004A8
:10590000000C7047D000810030B5134C0188A268AC
:105910008918931C88420ED00D79002D0BD1E568B3
:10592000A94208D025698D4200D120610D880580EB
:105930000988851ACD524188891881420BD00D798A
:10594000002D08D12569854200D1216104880C8091
:105950000088891AC15230BDDC00810010B50400F6
:10596000002905D00800FCF731FC2060002010BDA4
:105970000020FAE710B50400002905D00800FCF764
:1059800025FC6060002010BD0020FAE7F3B583B06D
:105990000398002740680090417A027A0802104379
:1059A000FFF707FE0006000E01901348002504686B
:1059B0001DE0217C0198814215D16669002E12D02C
:1059C000009BA0690C33039A2100B04700280AD03D
:1059D00000200127002D039005D0E068E86006480C
:1059E0000168E16004602500E468002F01D1002C0B
:1059F000DFD1380005B0F0BDCC00810070B50500E6
:105A00000020FFF72BFD040009D01C21FCF7D2FB7E
:105A100080202574E07203480168E1600460200082
:105A200070BD0000CC00810082614161704710B5FB
:105A3000021D00F001F810BDF7B50E00040014219E
:105A4000300084B0FFF7DDFE0027FF4300280AD0B6
:105A5000002211000120FFF7B1FD05000BD031003D
:105A6000FFF74CFE0AE013213500C9433000FFF771
:105A7000C8FE002802D0380007B0F0BD0698FFF736
:105A80009FF9002817D0002C1DD0216800291AD0BA
:105A90002100227CA37A029001920093E37A069A75
:105AA0002800FEF7EFFE0400B54202D02800FFF701
:105AB00085FE2000E0E7B54202D02800FFF77EFE19
:105AC0000320C043D8E7011DE3E700001F4A30B4BC
:105AD000906841690968890035D5416909684902BA
